{
  "address": "0x9559E05bCAdD1f7BAA9EE72Aa48a5d6241958298",
  "abi": [
    {
      "inputs": [
        {
          "internalType": "address",
          "name": "_brevisProof",
          "type": "address"
        }
      ],
      "stateMutability": "nonpayable",
      "type": "constructor"
    },
    {
      "anonymous": false,
      "inputs": [
        {
          "indexed": true,
          "internalType": "address",
          "name": "user",
          "type": "address"
        },
        {
          "indexed": false,
          "internalType": "uint128",
          "name": "accountId",
          "type": "uint128"
        },
        {
          "indexed": false,
          "internalType": "uint248",
          "name": "feeRebate",
          "type": "uint248"
        },
        {
          "indexed": false,
          "internalType": "uint32",
          "name": "startYearMonthDay",
          "type": "uint32"
        },
        {
          "indexed": false,
          "internalType": "uint32",
          "name": "endYearMonthDay",
          "type": "uint32"
        },
        {
          "indexed": false,
          "internalType": "uint64",
          "name": "startBlockNumber",
          "type": "uint64"
        },
        {
          "indexed": false,
          "internalType": "uint64",
          "name": "endBlockNumber",
          "type": "uint64"
        }
      ],
      "name": "FeeReimbursed",
      "type": "event"
    },
    {
      "anonymous": false,
      "inputs": [
        {
          "indexed": true,
          "internalType": "address",
          "name": "previousOwner",
          "type": "address"
        },
        {
          "indexed": true,
          "internalType": "address",
          "name": "newOwner",
          "type": "address"
        }
      ],
      "name": "OwnershipTransferred",
      "type": "event"
    },
    {
      "anonymous": false,
      "inputs": [
        {
          "indexed": false,
          "internalType": "bytes32[]",
          "name": "vkHashes",
          "type": "bytes32[]"
        },
        {
          "indexed": false,
          "internalType": "uint16[]",
          "name": "sizes",
          "type": "uint16[]"
        }
      ],
      "name": "VkHashesUpdated",
      "type": "event"
    },
    {
      "inputs": [
        {
          "internalType": "uint128",
          "name": "",
          "type": "uint128"
        }
      ],
      "name": "accountIdClaimedPeriod",
      "outputs": [
        {
          "internalType": "uint64",
          "name": "startBlockNumber",
          "type": "uint64"
        },
        {
          "internalType": "uint64",
          "name": "endBlockNumber",
          "type": "uint64"
        }
      ],
      "stateMutability": "view",
      "type": "function"
    },
    {
      "inputs": [],
      "name": "accountModule",
      "outputs": [
        {
          "internalType": "contract IAccountModule",
          "name": "",
          "type": "address"
        }
      ],
      "stateMutability": "view",
      "type": "function"
    },
    {
      "inputs": [
        {
          "internalType": "bytes32",
          "name": "_requestId",
          "type": "bytes32"
        },
        {
          "internalType": "bytes",
          "name": "_appCircuitOutput",
          "type": "bytes"
        }
      ],
      "name": "brevisCallback",
      "outputs": [],
      "stateMutability": "nonpayable",
      "type": "function"
    },
    {
      "inputs": [],
      "name": "brevisProof",
      "outputs": [
        {
          "internalType": "contract IBrevisProof",
          "name": "",
          "type": "address"
        }
      ],
      "stateMutability": "view",
      "type": "function"
    },
    {
      "inputs": [],
      "name": "owner",
      "outputs": [
        {
          "internalType": "address",
          "name": "",
          "type": "address"
        }
      ],
      "stateMutability": "view",
      "type": "function"
    },
    {
      "inputs": [],
      "name": "renounceOwnership",
      "outputs": [],
      "stateMutability": "nonpayable",
      "type": "function"
    },
    {
      "inputs": [],
      "name": "rewardToken",
      "outputs": [
        {
          "internalType": "address",
          "name": "",
          "type": "address"
        }
      ],
      "stateMutability": "view",
      "type": "function"
    },
    {
      "inputs": [],
      "name": "rewardTokenDecimals",
      "outputs": [
        {
          "internalType": "uint24",
          "name": "",
          "type": "uint24"
        }
      ],
      "stateMutability": "view",
      "type": "function"
    },
    {
      "inputs": [
        {
          "internalType": "contract IAccountModule",
          "name": "_accountModule",
          "type": "address"
        }
      ],
      "name": "setAccountModule",
      "outputs": [],
      "stateMutability": "nonpayable",
      "type": "function"
    },
    {
      "inputs": [
        {
          "internalType": "address",
          "name": "_rewardToken",
          "type": "address"
        },
        {
          "internalType": "uint24",
          "name": "_decimals",
          "type": "uint24"
        }
      ],
      "name": "setRewardToken",
      "outputs": [],
      "stateMutability": "nonpayable",
      "type": "function"
    },
    {
      "inputs": [
        {
          "internalType": "bytes32[]",
          "name": "_vkHashes",
          "type": "bytes32[]"
        },
        {
          "internalType": "uint16[]",
          "name": "_sizes",
          "type": "uint16[]"
        }
      ],
      "name": "setVkHashes",
      "outputs": [],
      "stateMutability": "nonpayable",
      "type": "function"
    },
    {
      "inputs": [
        {
          "internalType": "address",
          "name": "newOwner",
          "type": "address"
        }
      ],
      "name": "transferOwnership",
      "outputs": [],
      "stateMutability": "nonpayable",
      "type": "function"
    },
    {
      "inputs": [
        {
          "internalType": "bytes32",
          "name": "_requestId",
          "type": "bytes32"
        },
        {
          "internalType": "uint64",
          "name": "_chainId",
          "type": "uint64"
        },
        {
          "components": [
            {
              "internalType": "bytes32",
              "name": "smtRoot",
              "type": "bytes32"
            },
            {
              "components": [
                {
                  "internalType": "uint64",
                  "name": "blkNum",
                  "type": "uint64"
                },
                {
                  "internalType": "uint64",
                  "name": "receiptIndex",
                  "type": "uint64"
                },
                {
                  "components": [
                    {
                      "components": [
                        {
                          "internalType": "uint8",
                          "name": "valueFromTopic",
                          "type": "uint8"
                        },
                        {
                          "internalType": "uint64",
                          "name": "valueIndex",
                          "type": "uint64"
                        },
                        {
                          "internalType": "address",
                          "name": "contractAddress",
                          "type": "address"
                        },
                        {
                          "internalType": "bytes32",
                          "name": "logTopic0",
                          "type": "bytes32"
                        }
                      ],
                      "internalType": "struct Brevis.LogExtraInfo",
                      "name": "logExtraInfo",
                      "type": "tuple"
                    },
                    {
                      "internalType": "uint64",
                      "name": "logIndex",
                      "type": "uint64"
                    },
                    {
                      "internalType": "bytes32",
                      "name": "value",
                      "type": "bytes32"
                    }
                  ],
                  "internalType": "struct Brevis.LogInfo[5]",
                  "name": "logs",
                  "type": "tuple[5]"
                }
              ],
              "internalType": "struct Brevis.ReceiptInfo[]",
              "name": "receipts",
              "type": "tuple[]"
            },
            {
              "components": [
                {
                  "internalType": "bytes32",
                  "name": "blockHash",
                  "type": "bytes32"
                },
                {
                  "internalType": "address",
                  "name": "account",
                  "type": "address"
                },
                {
                  "internalType": "bytes32",
                  "name": "slot",
                  "type": "bytes32"
                },
                {
                  "internalType": "bytes32",
                  "name": "slotValue",
                  "type": "bytes32"
                },
                {
                  "internalType": "uint64",
                  "name": "blockNumber",
                  "type": "uint64"
                }
              ],
              "internalType": "struct Brevis.StorageInfo[]",
              "name": "stores",
              "type": "tuple[]"
            },
            {
              "components": [
                {
                  "internalType": "bytes32",
                  "name": "leafHash",
                  "type": "bytes32"
                },
                {
                  "internalType": "bytes32",
                  "name": "blockHash",
                  "type": "bytes32"
                },
                {
                  "internalType": "uint64",
                  "name": "blockNumber",
                  "type": "uint64"
                },
                {
                  "internalType": "uint64",
                  "name": "blockTime",
                  "type": "uint64"
                },
                {
                  "internalType": "bytes",
                  "name": "leafRlpPrefix",
                  "type": "bytes"
                }
              ],
              "internalType": "struct Brevis.TransactionInfo[]",
              "name": "txs",
              "type": "tuple[]"
            }
          ],
          "internalType": "struct Brevis.ExtractInfos",
          "name": "_extractInfos",
          "type": "tuple"
        }
      ],
      "name": "validateRequest",
      "outputs": [
        {
          "internalType": "bool",
          "name": "",
          "type": "bool"
        }
      ],
      "stateMutability": "view",
      "type": "function"
    },
    {
      "inputs": [
        {
          "internalType": "bytes32",
          "name": "",
          "type": "bytes32"
        }
      ],
      "name": "vkHashesToCircuitSize",
      "outputs": [
        {
          "internalType": "uint16",
          "name": "",
          "type": "uint16"
        }
      ],
      "stateMutability": "view",
      "type": "function"
    }
  ],
  "transactionHash": "0x2966e7b9d964c1557ba0dbbe1eada1bc9038e195a631ec6926daa414a057a89f",
  "args": [
    "0x320039A33Bf6D30f1FcF26A87f975eCDC7c15caA"
  ],
  "numDeployments": 4,
  "solcInputHash": "f7a33292884258819cd7cec532f6019d",
  "bytecode": "0x60a0346100b757601f611aa038819003918201601f19168301916001600160401b038311848410176100bc578084926020946040528339810103126100b757516001600160a01b0390818116908190036100b7576080526000543360018060a01b0319821617600055604051913391167f8be0079c531659141344cd1fd0a4f28419497f9722a3daafe3b4186f6b6457e0600080a36119cd90816100d3823960805181818161043a01528181610b850152610e820152f35b600080fd5b634e487b7160e01b600052604160045260246000fdfe6080604052600436101561001257600080fd5b60003560e01c80630258daac146100f757806319d20391146100f25780631dd3f354146100ed578063715018a6146100e857806372b3958f146100e357806379d6b6a2146100de5780637c08aa74146100d95780638da5cb5b146100d45780639bdcecd1146100cf578063a184a0c7146100ca578063ada323ff146100c5578063c7f5aaa0146100c0578063f2fde38b146100bb5763f7c618c1146100b657600080fd5b610c58565b610ba9565b610b65565b610ad3565b610aa3565b610a7d565b610a56565b610980565b6103d2565b610382565b610314565b6101ce565b610176565b610112565b6001600160a01b0381160361010d57565b600080fd5b3461010d57602036600319011261010d5760043561012f816100fc565b6001600160a01b039061014782600054163314610c7f565b1673ffffffffffffffffffffffffffffffffffffffff196002541617600255600080f35b600091031261010d57565b3461010d57600036600319011261010d5760206001600160a01b0360025416604051908152f35b9181601f8401121561010d5782359167ffffffffffffffff831161010d576020808501948460051b01011161010d57565b3461010d57604036600319011261010d5767ffffffffffffffff60043581811161010d5761020090369060040161019d565b909160243590811161010d5761021a90369060040161019d565b92906102326001600160a01b03600054163314610c7f565b8383036102cf5760005b83811061027b57507fb3f7d79a2f90dac793ddd7d86f2d7d5d073e107289c685083e9d4329f1640f5c936102769160405194859485611902565b0390a1005b806102c56102956102906102ca9489876118c6565b6118f8565b6102b46102a38489896118c6565b356000526003602052604060002090565b9061ffff1661ffff19825416179055565b6118b7565b61023c565b60405162461bcd60e51b815260206004820152601060248201527f6c656e677468206e6f74206d61746368000000000000000000000000000000006044820152606490fd5b3461010d5760008060031936011261037f5780805473ffffffffffffffffffffffffffffffffffffffff196001600160a01b03821691610355338414610c7f565b1682557f8be0079c531659141344cd1fd0a4f28419497f9722a3daafe3b4186f6b6457e08280a380f35b80fd5b3461010d57602036600319011261010d576004356001600160801b03811680910361010d5760005260046020526040806000205481519067ffffffffffffffff908181168352831c166020820152f35b3461010d5760408060031936011261010d5767ffffffffffffffff60243581811161010d573660238201121561010d57806004013591821161010d576024810190602483369201011161010d578251632cc27dc960e11b8152600480359082015283816024817f00000000000000000000000000000000000000000000000000000000000000006001600160a01b03165afa9081156105115760009081926104dc575b50610481368585610855565b60208151910120036104995761049793506111ce565b005b6064845162461bcd60e51b815260206004820152602060248201527f6661696c656420746f206f70656e206f757470757420636f6d6d69746d656e746044820152fd5b91508482813d831161050a575b6104f381836105e1565b8101031261037f5750602081519101519038610475565b503d6104e9565b610e69565b6024359067ffffffffffffffff8216820361010d57565b359067ffffffffffffffff8216820361010d57565b634e487b7160e01b600052604160045260246000fd5b6060810190811067ffffffffffffffff82111761057457604052565b610542565b60a0810190811067ffffffffffffffff82111761057457604052565b6080810190811067ffffffffffffffff82111761057457604052565b67ffffffffffffffff811161057457604052565b6040810190811067ffffffffffffffff82111761057457604052565b90601f8019910116810190811067ffffffffffffffff82111761057457604052565b67ffffffffffffffff81116105745760051b60200190565b81601f8201121561010d5780359061063282610603565b92604092610642845195866105e1565b8085526020918280870192600a1b8501019381851161010d578301915b84831061066f5750505050505090565b610400808484031261010d5786519061068782610558565b6106908561052d565b825261069d86860161052d565b8683015283605f8601121561010d578751906106b882610579565b85018185821161010d579187939194928a8801905b8682106106ea57505061040094508982015281520192019161065f565b908092949693955087039060c0821261010d578b519061070982610558565b608080931261010d578c519161071e83610595565b843560ff8116810361010d5760c0948f948e9561076a938252610742878a0161052d565b878301528089013590610754826100fc565b820152606080890135908201528352860161052d565b838201528d60a08601359082015281520191018894929593916106cd565b81601f8201121561010d5780359061079f82610603565b926040906107af825195866105e1565b838552602091828601918360a08097028601019481861161010d578401925b8584106107df575050505050505090565b868483031261010d5784879184516107f681610579565b8635815282870135610807816100fc565b83820152858701358682015260608088013590820152608061082a81890161052d565b908201528152019301926107ce565b67ffffffffffffffff811161057457601f01601f191660200190565b92919261086182610839565b9161086f60405193846105e1565b82948184528183011161010d578281602093846000960137010152565b81601f8201121561010d578035906108a382610603565b926040926108b3845195866105e1565b808552602093848087019260051b8501019383851161010d57858101925b8584106108e2575050505050505090565b67ffffffffffffffff90843582811161010d5783019060a09283601f19848a03011261010d5785519261091484610579565b8a8101358452868101358b85015260609461093086830161052d565b8886015260809561094287840161052d565b9086015281013591821161010d57019187603f8401121561010d57899361097189858988809801359101610855565b908201528152019301926108d1565b3461010d5760031960603682011261010d5761099a610516565b6044359067ffffffffffffffff9283831161010d57608090833603011261010d57604051906109c882610595565b82600401358252602483013584811161010d576109eb906004369186010161061b565b6020830152604483013584811161010d57610a0c9060043691860101610788565b6040830152606483013593841161010d57610a33610a40936004610a52963692010161088c565b6060830152600435610e75565b60405190151581529081906020820190565b0390f35b3461010d57600036600319011261010d5760206001600160a01b0360005416604051908152f35b3461010d57600036600319011261010d57602062ffffff60015460a01c16604051908152f35b3461010d57602036600319011261010d576004356000526003602052602061ffff60406000205416604051908152f35b3461010d57604036600319011261010d57600435610af0816100fc565b60243562ffffff8116810361010d577fffffffffffffffffff00000000000000000000000000000000000000000000006001600160a01b03610b3781600054163314610c7f565b76ffffff00000000000000000000000000000000000000006001549360a01b16931691161717600155600080f35b3461010d57600036600319011261010d5760206040516001600160a01b037f0000000000000000000000000000000000000000000000000000000000000000168152f35b3461010d57602036600319011261010d57600435610bc6816100fc565b6001600160a01b03610bdd81600054163314610c7f565b811615610bed5761049790610cca565b60405162461bcd60e51b815260206004820152602660248201527f4f776e61626c653a206e6577206f776e657220697320746865207a65726f206160448201527f64647265737300000000000000000000000000000000000000000000000000006064820152608490fd5b3461010d57600036600319011261010d5760206001600160a01b0360015416604051908152f35b15610c8657565b606460405162461bcd60e51b815260206004820152602060248201527f4f776e61626c653a2063616c6c6572206973206e6f7420746865206f776e65726044820152fd5b600054906001600160a01b03809116918273ffffffffffffffffffffffffffffffffffffffff19821617600055167f8be0079c531659141344cd1fd0a4f28419497f9722a3daafe3b4186f6b6457e0600080a3565b90815180825260208080930193019160005b828110610d3f575050505090565b835180518652808301516001600160a01b031686840152604080820151908701526060808201519087015260809081015167ffffffffffffffff169086015260a09094019392810192600101610d31565b919082519283825260005b848110610dbc575050826000602080949584010152601f8019910116010190565b602081830181015184830182015201610d9b565b908082519081815260208091019281808460051b8301019501936000915b848310610dfe5750505050505090565b9091929394958480610e59600193601f198682030187528a5180518252838101518483015267ffffffffffffffff6040818184015116908401526060908183015116908301526080809101519160a080928201520190610d90565b9801930193019194939290610dee565b6040513d6000823e3d90fd5b916001600160a01b0390817f00000000000000000000000000000000000000000000000000000000000000001691823b1561010d57929391906040948551958694631f022a9d60e21b8652600486015267ffffffffffffffff809216602486015260609081604487015260e486019284516064880152602093848601519460808060848b01528651809352816101048b0197019360009b8c925b858410610f81575050505050505092859392610f5392610f4186958401519260631993848883030160a4890152610d1f565b920151908483030160c4850152610dd0565b03915afa801561051157610f68575b50600190565b80610f75610f7b926105b1565b8061016b565b38610f62565b9193869a9b9c508d8882989b939597999a9b518781511685528784820151168486015201518a84019091905b8b8d60058410610fd8575050505050610400600192019a019401918d9b9a9998979694959391610f0f565b9160c091859693600195965190808d83519060ff82511687528882015116888701528d8582015116858701520151908401528b85820151168a840152015160a082015201930191018892610fad565b1561102e57565b60405162461bcd60e51b815260206004820152601060248201527f766b48617368206e6f742076616c6964000000000000000000000000000000006044820152606490fd5b1561107a57565b60405162461bcd60e51b815260206004820152601460248201527f696e76616c696420636c61696d20706572696f640000000000000000000000006044820152606490fd5b634e487b7160e01b600052601160045260246000fd5b906001600160f81b0380921691601483021691808304601414901517156110f857565b6110bf565b906001600160f81b0380921691603283021691808304603214901517156110f857565b906001600160f81b0380921691604b83021691808304604b14901517156110f857565b906001600160f81b0380921691605a83021691808304605a14901517156110f857565b9081602091031261010d575161117b816100fc565b90565b62ffffff16604d81116110f857600a0a90565b818102929181159184041417156110f857565b906040516111b1816105c5565b602081935467ffffffffffffffff90818116845260401c16910152565b9061120061ffff6111f86111f061120596956000526003602052604060002090565b5461ffff1690565b161515611027565b6117cc565b92939594909161121d6112188885611849565b611073565b60006001600160f81b038096166a52b7d2dcc80cd2e400000081116000146114f057505061124d61125d91611143565b6001600160f81b03606491160490565b945b6000948616806113cc575b50916001600160a01b039493916113b5937f149483ac2e2b92cd7bd5226e213b4596b7b03b191725cb5786a3bf48a8ddd70b9761135e6112c56112c08c6001600160801b03166000526004602052604060002090565b6111a4565b67ffffffffffffffff6112e0825167ffffffffffffffff1690565b16156113ba575b67ffffffffffffffff871660208201526113148c6001600160801b03166000526004602052604060002090565b9067ffffffffffffffff8151166fffffffffffffffff000000000000000060208454938367ffffffffffffffff198616178655015160401b16916001600160801b03191617179055565b604080516001600160801b03909b168b526001600160f81b0390911660208b015263ffffffff918216908a015216606088015267ffffffffffffffff90811660808801521660a086015291169290819060c0820190565b0390a2565b67ffffffffffffffff861681526112e7565b93916114239593916020896113f86113ec6002546001600160a01b031690565b6001600160a01b031690565b60405180809b819463bf60c31d60e01b8352600483019190916001600160801b036020820193169052565b03915afa978815610511577f149483ac2e2b92cd7bd5226e213b4596b7b03b191725cb5786a3bf48a8ddd70b986001600160a01b03986113b597916114c2575b5080978991828116611480575b505050975091935091939461126a565b6114ba926114b36114a56001549461149f62ffffff8760a01c1661117e565b90611191565b670de0b6b3a7640000900490565b9216611569565b388080611470565b6114e3915060203d81116114e9575b6114db81836105e1565b810190611166565b38611463565b503d6114d1565b6a084595161401484a00000081111561151757505061124d61151191611120565b9461125f565b69d3c21bcecceda100000081111561153757505061124d611511916110fd565b69152d02c7e14af6800000909792919711611553575b5061125f565b61156291965061124d906110d5565b943861154d565b91604051916020938484019263a9059cbb60e01b84526001600160a01b0380931660248601526044850152604484526115a184610595565b1690604051926115b0846105c5565b8484527f5361666545524332303a206c6f772d6c6576656c2063616c6c206661696c656485850152823b15611623576115fc939260009283809351925af16115f66116f2565b90611722565b8051908161160957505050565b826116219361161c938301019101611668565b611680565b565b60405162461bcd60e51b815260048101869052601d60248201527f416464726573733a2063616c6c20746f206e6f6e2d636f6e74726163740000006044820152606490fd5b9081602091031261010d5751801515810361010d5790565b1561168757565b60405162461bcd60e51b815260206004820152602a60248201527f5361666545524332303a204552433230206f7065726174696f6e20646964206e60448201527f6f742073756363656564000000000000000000000000000000000000000000006064820152608490fd5b3d1561171d573d9061170382610839565b9161171160405193846105e1565b82523d6000602084013e565b606090565b9091901561172e575090565b81511561173e5750805190602001fd5b60405162461bcd60e51b815260206004820152908190611762906024830190610d90565b0390fd5b90605e1161010d5760560190600890565b9060661161010d57605e0190600890565b7fffffffffffffffff00000000000000000000000000000000000000000000000090358181169392600881106117bd57505050565b60080360031b82901b16169150565b8160041161010d57803560e01c928260081161010d57600482013560e01c928060181161010d57600883013560801c928160371161010d57601881013560081c928260561161010d5761117b61183d611837603785013560081c9561184361183d6118378389611766565b90611788565b60c01c90565b95611777565b6001600160801b0360209216600052600482526040600020906040519161186f836105c5565b5467ffffffffffffffff92838083169283835260401c16948591015215806118af575b6118a7571611156118a257600190565b600090565b505050600190565b508215611892565b60001981146110f85760010190565b91908110156118d65760051b0190565b634e487b7160e01b600052603260045260246000fd5b61ffff81160361010d57565b3561117b816118ec565b9190939293604083528160408401527f07ffffffffffffffffffffffffffffffffffffffffffffffffffffffffffffff821161010d5760809160059493941b8091606086013783018260608201602095866060828603019101525201929160005b828110611971575050505090565b90919293828060019261ffff8835611988816118ec565b1681520195019392910161196356fea2646970667358221220e9f94215073508ea0f5b81967ab1fba7a19a952e3473c4551a6e267fe2b3242364736f6c63430008140033",
  "devdoc": {
    "kind": "dev",
    "methods": {
      "owner()": {
        "details": "Returns the address of the current owner."
      },
      "renounceOwnership()": {
        "details": "Leaves the contract without owner. It will not be possible to call `onlyOwner` functions anymore. Can only be called by the current owner. NOTE: Renouncing ownership will leave the contract without an owner, thereby removing any functionality that is only available to the owner."
      },
      "transferOwnership(address)": {
        "details": "Transfers ownership of the contract to a new account (`newOwner`). Can only be called by the current owner."
      }
    },
    "version": 1
  },
  "userdoc": {
    "kind": "user",
    "methods": {},
    "version": 1
  },
  "storageLayout": {
    "storage": [
      {
        "astId": 7,
        "contract": "contracts/FeeReimbursementApp.sol:FeeReimbursementApp",
        "label": "_owner",
        "offset": 0,
        "slot": "0",
        "type": "t_address"
      },
      {
        "astId": 1361,
        "contract": "contracts/FeeReimbursementApp.sol:FeeReimbursementApp",
        "label": "rewardToken",
        "offset": 0,
        "slot": "1",
        "type": "t_address"
      },
      {
        "astId": 1363,
        "contract": "contracts/FeeReimbursementApp.sol:FeeReimbursementApp",
        "label": "rewardTokenDecimals",
        "offset": 20,
        "slot": "1",
        "type": "t_uint24"
      },
      {
        "astId": 1366,
        "contract": "contracts/FeeReimbursementApp.sol:FeeReimbursementApp",
        "label": "accountModule",
        "offset": 0,
        "slot": "2",
        "type": "t_contract(IAccountModule)1346"
      },
      {
        "astId": 1370,
        "contract": "contracts/FeeReimbursementApp.sol:FeeReimbursementApp",
        "label": "vkHashesToCircuitSize",
        "offset": 0,
        "slot": "3",
        "type": "t_mapping(t_bytes32,t_uint16)"
      },
      {
        "astId": 1375,
        "contract": "contracts/FeeReimbursementApp.sol:FeeReimbursementApp",
        "label": "accountIdClaimedPeriod",
        "offset": 0,
        "slot": "4",
        "type": "t_mapping(t_uint128,t_struct(ClaimedPeriod)1351_storage)"
      }
    ],
    "types": {
      "t_address": {
        "encoding": "inplace",
        "label": "address",
        "numberOfBytes": "20"
      },
      "t_bytes32": {
        "encoding": "inplace",
        "label": "bytes32",
        "numberOfBytes": "32"
      },
      "t_contract(IAccountModule)1346": {
        "encoding": "inplace",
        "label": "contract IAccountModule",
        "numberOfBytes": "20"
      },
      "t_mapping(t_bytes32,t_uint16)": {
        "encoding": "mapping",
        "key": "t_bytes32",
        "label": "mapping(bytes32 => uint16)",
        "numberOfBytes": "32",
        "value": "t_uint16"
      },
      "t_mapping(t_uint128,t_struct(ClaimedPeriod)1351_storage)": {
        "encoding": "mapping",
        "key": "t_uint128",
        "label": "mapping(uint128 => struct ClaimedPeriod)",
        "numberOfBytes": "32",
        "value": "t_struct(ClaimedPeriod)1351_storage"
      },
      "t_struct(ClaimedPeriod)1351_storage": {
        "encoding": "inplace",
        "label": "struct ClaimedPeriod",
        "members": [
          {
            "astId": 1348,
            "contract": "contracts/FeeReimbursementApp.sol:FeeReimbursementApp",
            "label": "startBlockNumber",
            "offset": 0,
            "slot": "0",
            "type": "t_uint64"
          },
          {
            "astId": 1350,
            "contract": "contracts/FeeReimbursementApp.sol:FeeReimbursementApp",
            "label": "endBlockNumber",
            "offset": 8,
            "slot": "0",
            "type": "t_uint64"
          }
        ],
        "numberOfBytes": "32"
      },
      "t_uint128": {
        "encoding": "inplace",
        "label": "uint128",
        "numberOfBytes": "16"
      },
      "t_uint16": {
        "encoding": "inplace",
        "label": "uint16",
        "numberOfBytes": "2"
      },
      "t_uint24": {
        "encoding": "inplace",
        "label": "uint24",
        "numberOfBytes": "3"
      },
      "t_uint64": {
        "encoding": "inplace",
        "label": "uint64",
        "numberOfBytes": "8"
      }
    }
  }
}