{
  "address": "0xcD0F90175026bbb1762B94B9f7693D690Ba59301",
  "abi": [
    {
      "anonymous": false,
      "inputs": [
        {
          "indexed": true,
          "internalType": "address",
          "name": "previousOwner",
          "type": "address"
        },
        {
          "indexed": true,
          "internalType": "address",
          "name": "newOwner",
          "type": "address"
        }
      ],
      "name": "OwnershipTransferred",
      "type": "event"
    },
    {
      "inputs": [
        {
          "internalType": "uint248",
          "name": "volume30D",
          "type": "uint248"
        }
      ],
      "name": "getFeeRebatePercentage",
      "outputs": [
        {
          "internalType": "uint64",
          "name": "",
          "type": "uint64"
        }
      ],
      "stateMutability": "pure",
      "type": "function"
    },
    {
      "inputs": [],
      "name": "owner",
      "outputs": [
        {
          "internalType": "address",
          "name": "",
          "type": "address"
        }
      ],
      "stateMutability": "view",
      "type": "function"
    },
    {
      "inputs": [],
      "name": "renounceOwnership",
      "outputs": [],
      "stateMutability": "nonpayable",
      "type": "function"
    },
    {
      "inputs": [
        {
          "internalType": "address",
          "name": "newOwner",
          "type": "address"
        }
      ],
      "name": "transferOwnership",
      "outputs": [],
      "stateMutability": "nonpayable",
      "type": "function"
    }
  ],
  "transactionHash": "0x4588e748f867c77ab9de11cba563ad414bbbcda5c07e7e6a3b91804ad53d373c",
  "args": [],
  "numDeployments": 1,
  "solcInputHash": "fee591e2b974cd3a5e7d0f0cab6c461f",
  "bytecode": "0x6080806040523461005b5760008054336001600160a01b0319821681178355916001600160a01b03909116907f8be0079c531659141344cd1fd0a4f28419497f9722a3daafe3b4186f6b6457e09080a361030190816100618239f35b600080fdfe6080604052600436101561001257600080fd5b6000803560e01c8063715018a6146101d55780638da5cb5b146101a2578063b72bf509146101475763f2fde38b1461004957600080fd5b346101445760203660031901126101445760043573ffffffffffffffffffffffffffffffffffffffff8082168092036101405782549081169061008d33831461024c565b82156100d55773ffffffffffffffffffffffffffffffffffffffff1916821783557f8be0079c531659141344cd1fd0a4f28419497f9722a3daafe3b4186f6b6457e08380a380f35b60405162461bcd60e51b815260206004820152602660248201527f4f776e61626c653a206e6577206f776e657220697320746865207a65726f206160448201527f64647265737300000000000000000000000000000000000000000000000000006064820152608490fd5b8280fd5b80fd5b503461014457602036600319011261014457600435907effffffffffffffffffffffffffffffffffffffffffffffffffffffffffffff8216820361014457602061019083610297565b67ffffffffffffffff60405191168152f35b503461014457806003193601126101445773ffffffffffffffffffffffffffffffffffffffff6020915416604051908152f35b503461014457806003193601126101445780805473ffffffffffffffffffffffffffffffffffffffff1973ffffffffffffffffffffffffffffffffffffffff82169161022233841461024c565b1682557f8be0079c531659141344cd1fd0a4f28419497f9722a3daafe3b4186f6b6457e08280a380f35b1561025357565b606460405162461bcd60e51b815260206004820152602060248201527f4f776e61626c653a2063616c6c6572206973206e6f7420746865206f776e65726044820152fd5b7effffffffffffffffffffffffffffffffffffffffffffffffffffffffffffff6175309116116102c657600190565b60029056fea2646970667358221220826ef8d5ce734a1fe4385fd011e2cab52cceb1205ab9c235fae84880aba4ffd264736f6c63430008140033",
  "devdoc": {
    "kind": "dev",
    "methods": {
      "owner()": {
        "details": "Returns the address of the current owner."
      },
      "renounceOwnership()": {
        "details": "Leaves the contract without owner. It will not be possible to call `onlyOwner` functions anymore. Can only be called by the current owner. NOTE: Renouncing ownership will leave the contract without an owner, thereby removing any functionality that is only available to the owner."
      },
      "transferOwnership(address)": {
        "details": "Transfers ownership of the contract to a new account (`newOwner`). Can only be called by the current owner."
      }
    },
    "version": 1
  },
  "userdoc": {
    "kind": "user",
    "methods": {},
    "version": 1
  },
  "storageLayout": {
    "storage": [
      {
        "astId": 7,
        "contract": "contracts/MockFeeModule.sol:MockFeeModule",
        "label": "_owner",
        "offset": 0,
        "slot": "0",
        "type": "t_address"
      }
    ],
    "types": {
      "t_address": {
        "encoding": "inplace",
        "label": "address",
        "numberOfBytes": "20"
      }
    }
  }
}