{
  "address": "0xa289Edd1613FAd703C40C917BeE48881B6Fe1648",
  "abi": [
    {
      "inputs": [
        {
          "internalType": "address",
          "name": "_brevisProof",
          "type": "address"
        }
      ],
      "stateMutability": "nonpayable",
      "type": "constructor"
    },
    {
      "inputs": [],
      "name": "InvalidNewClaimPeriod",
      "type": "error"
    },
    {
      "inputs": [],
      "name": "ZeroAddress",
      "type": "error"
    },
    {
      "inputs": [],
      "name": "onlyClaimContractCanAccess",
      "type": "error"
    },
    {
      "anonymous": false,
      "inputs": [
        {
          "indexed": false,
          "internalType": "address",
          "name": "",
          "type": "address"
        }
      ],
      "name": "BrevisProofUpdated",
      "type": "event"
    },
    {
      "anonymous": false,
      "inputs": [
        {
          "indexed": false,
          "internalType": "address",
          "name": "",
          "type": "address"
        }
      ],
      "name": "ClaimerUpdated",
      "type": "event"
    },
    {
      "anonymous": false,
      "inputs": [
        {
          "indexed": false,
          "internalType": "uint256",
          "name": "",
          "type": "uint256"
        }
      ],
      "name": "ContractsHashUpdated",
      "type": "event"
    },
    {
      "anonymous": false,
      "inputs": [
        {
          "indexed": false,
          "internalType": "address",
          "name": "account",
          "type": "address"
        },
        {
          "indexed": false,
          "internalType": "uint248",
          "name": "feeRebate",
          "type": "uint248"
        },
        {
          "indexed": false,
          "internalType": "uint248",
          "name": "volume30D",
          "type": "uint248"
        },
        {
          "indexed": false,
          "internalType": "uint248",
          "name": "feeRebateWithRate",
          "type": "uint248"
        },
        {
          "indexed": false,
          "internalType": "uint64",
          "name": "startBlockNumber",
          "type": "uint64"
        },
        {
          "indexed": false,
          "internalType": "uint64",
          "name": "endBlockNumber",
          "type": "uint64"
        }
      ],
      "name": "FeeRebateAccumulated",
      "type": "event"
    },
    {
      "anonymous": false,
      "inputs": [
        {
          "indexed": false,
          "internalType": "address",
          "name": "",
          "type": "address"
        }
      ],
      "name": "FeeRebateTireModuleUpdated",
      "type": "event"
    },
    {
      "anonymous": false,
      "inputs": [
        {
          "indexed": false,
          "internalType": "address",
          "name": "account",
          "type": "address"
        },
        {
          "indexed": false,
          "internalType": "uint248",
          "name": "feeRebate",
          "type": "uint248"
        }
      ],
      "name": "FeeReimbursed",
      "type": "event"
    },
    {
      "anonymous": false,
      "inputs": [],
      "name": "MigrationDone",
      "type": "event"
    },
    {
      "anonymous": false,
      "inputs": [
        {
          "indexed": false,
          "internalType": "address",
          "name": "account",
          "type": "address"
        },
        {
          "indexed": false,
          "internalType": "uint248",
          "name": "feeAccumulated",
          "type": "uint248"
        },
        {
          "indexed": false,
          "internalType": "uint64",
          "name": "startBlockNumber",
          "type": "uint64"
        },
        {
          "indexed": false,
          "internalType": "uint64",
          "name": "endBlockNumber",
          "type": "uint64"
        }
      ],
      "name": "MigrationFinishedForAccount",
      "type": "event"
    },
    {
      "anonymous": false,
      "inputs": [
        {
          "indexed": true,
          "internalType": "address",
          "name": "previousOwner",
          "type": "address"
        },
        {
          "indexed": true,
          "internalType": "address",
          "name": "newOwner",
          "type": "address"
        }
      ],
      "name": "OwnershipTransferred",
      "type": "event"
    },
    {
      "anonymous": false,
      "inputs": [
        {
          "indexed": false,
          "internalType": "bytes32[]",
          "name": "vkHashes",
          "type": "bytes32[]"
        },
        {
          "indexed": false,
          "internalType": "uint16[]",
          "name": "sizes",
          "type": "uint16[]"
        }
      ],
      "name": "VkHashesUpdated",
      "type": "event"
    },
    {
      "inputs": [
        {
          "internalType": "address",
          "name": "",
          "type": "address"
        }
      ],
      "name": "accountAccumulatedFee",
      "outputs": [
        {
          "internalType": "uint248",
          "name": "",
          "type": "uint248"
        }
      ],
      "stateMutability": "view",
      "type": "function"
    },
    {
      "inputs": [
        {
          "internalType": "address",
          "name": "",
          "type": "address"
        }
      ],
      "name": "accountClaimPeriod",
      "outputs": [
        {
          "internalType": "uint64",
          "name": "startBlockNumber",
          "type": "uint64"
        },
        {
          "internalType": "uint64",
          "name": "endBlockNumber",
          "type": "uint64"
        }
      ],
      "stateMutability": "view",
      "type": "function"
    },
    {
      "inputs": [
        {
          "internalType": "uint64",
          "name": "_chainId",
          "type": "uint64"
        },
        {
          "components": [
            {
              "internalType": "bytes32",
              "name": "commitHash",
              "type": "bytes32"
            },
            {
              "internalType": "bytes32",
              "name": "vkHash",
              "type": "bytes32"
            },
            {
              "internalType": "bytes32",
              "name": "appCommitHash",
              "type": "bytes32"
            },
            {
              "internalType": "bytes32",
              "name": "appVkHash",
              "type": "bytes32"
            },
            {
              "internalType": "bytes32",
              "name": "smtRoot",
              "type": "bytes32"
            }
          ],
          "internalType": "struct Brevis.ProofData[]",
          "name": "_proofDataArray",
          "type": "tuple[]"
        },
        {
          "internalType": "bytes[]",
          "name": "_appCircuitOutputs",
          "type": "bytes[]"
        }
      ],
      "name": "brevisBatchCallback",
      "outputs": [],
      "stateMutability": "nonpayable",
      "type": "function"
    },
    {
      "inputs": [
        {
          "internalType": "bytes32",
          "name": "_requestId",
          "type": "bytes32"
        },
        {
          "internalType": "bytes",
          "name": "_appCircuitOutput",
          "type": "bytes"
        }
      ],
      "name": "brevisCallback",
      "outputs": [],
      "stateMutability": "nonpayable",
      "type": "function"
    },
    {
      "inputs": [],
      "name": "brevisProof",
      "outputs": [
        {
          "internalType": "contract IBrevisProof",
          "name": "",
          "type": "address"
        }
      ],
      "stateMutability": "view",
      "type": "function"
    },
    {
      "inputs": [
        {
          "internalType": "address",
          "name": "account",
          "type": "address"
        }
      ],
      "name": "claim",
      "outputs": [],
      "stateMutability": "nonpayable",
      "type": "function"
    },
    {
      "inputs": [],
      "name": "claimContract",
      "outputs": [
        {
          "internalType": "address",
          "name": "",
          "type": "address"
        }
      ],
      "stateMutability": "view",
      "type": "function"
    },
    {
      "inputs": [],
      "name": "claimer",
      "outputs": [
        {
          "internalType": "address",
          "name": "",
          "type": "address"
        }
      ],
      "stateMutability": "view",
      "type": "function"
    },
    {
      "inputs": [],
      "name": "contractsHash",
      "outputs": [
        {
          "internalType": "uint256",
          "name": "",
          "type": "uint256"
        }
      ],
      "stateMutability": "view",
      "type": "function"
    },
    {
      "inputs": [],
      "name": "feeRebateTierModule",
      "outputs": [
        {
          "internalType": "contract IFeeRebateTierModule",
          "name": "",
          "type": "address"
        }
      ],
      "stateMutability": "view",
      "type": "function"
    },
    {
      "inputs": [],
      "name": "owner",
      "outputs": [
        {
          "internalType": "address",
          "name": "",
          "type": "address"
        }
      ],
      "stateMutability": "view",
      "type": "function"
    },
    {
      "inputs": [],
      "name": "renounceOwnership",
      "outputs": [],
      "stateMutability": "nonpayable",
      "type": "function"
    },
    {
      "inputs": [],
      "name": "rewardToken",
      "outputs": [
        {
          "internalType": "address",
          "name": "",
          "type": "address"
        }
      ],
      "stateMutability": "view",
      "type": "function"
    },
    {
      "inputs": [],
      "name": "rewardTokenDecimals",
      "outputs": [
        {
          "internalType": "uint24",
          "name": "",
          "type": "uint24"
        }
      ],
      "stateMutability": "view",
      "type": "function"
    },
    {
      "inputs": [
        {
          "internalType": "address",
          "name": "_brevisProof",
          "type": "address"
        }
      ],
      "name": "setBrevisProof",
      "outputs": [],
      "stateMutability": "nonpayable",
      "type": "function"
    },
    {
      "inputs": [
        {
          "internalType": "address",
          "name": "_claimContract",
          "type": "address"
        }
      ],
      "name": "setClaimContract",
      "outputs": [],
      "stateMutability": "nonpayable",
      "type": "function"
    },
    {
      "inputs": [
        {
          "internalType": "address",
          "name": "_claimer",
          "type": "address"
        }
      ],
      "name": "setClaimer",
      "outputs": [],
      "stateMutability": "nonpayable",
      "type": "function"
    },
    {
      "inputs": [
        {
          "internalType": "uint256",
          "name": "_contractsHash",
          "type": "uint256"
        }
      ],
      "name": "setContractsHash",
      "outputs": [],
      "stateMutability": "nonpayable",
      "type": "function"
    },
    {
      "inputs": [
        {
          "internalType": "contract IFeeRebateTierModule",
          "name": "_feeRebateTierModule",
          "type": "address"
        }
      ],
      "name": "setFeeRebateTierModule",
      "outputs": [],
      "stateMutability": "nonpayable",
      "type": "function"
    },
    {
      "inputs": [
        {
          "internalType": "address",
          "name": "_rewardToken",
          "type": "address"
        },
        {
          "internalType": "uint24",
          "name": "_decimals",
          "type": "uint24"
        }
      ],
      "name": "setRewardToken",
      "outputs": [],
      "stateMutability": "nonpayable",
      "type": "function"
    },
    {
      "inputs": [
        {
          "internalType": "bytes32[]",
          "name": "_vkHashes",
          "type": "bytes32[]"
        },
        {
          "internalType": "uint16[]",
          "name": "_sizes",
          "type": "uint16[]"
        }
      ],
      "name": "setVkHashes",
      "outputs": [],
      "stateMutability": "nonpayable",
      "type": "function"
    },
    {
      "inputs": [
        {
          "internalType": "uint64",
          "name": "_chainId",
          "type": "uint64"
        },
        {
          "components": [
            {
              "internalType": "bytes32",
              "name": "commitHash",
              "type": "bytes32"
            },
            {
              "internalType": "bytes32",
              "name": "vkHash",
              "type": "bytes32"
            },
            {
              "internalType": "bytes32",
              "name": "appCommitHash",
              "type": "bytes32"
            },
            {
              "internalType": "bytes32",
              "name": "appVkHash",
              "type": "bytes32"
            },
            {
              "internalType": "bytes32",
              "name": "smtRoot",
              "type": "bytes32"
            }
          ],
          "internalType": "struct Brevis.ProofData",
          "name": "_proofData",
          "type": "tuple"
        },
        {
          "internalType": "bytes32",
          "name": "_merkleRoot",
          "type": "bytes32"
        },
        {
          "internalType": "bytes32[]",
          "name": "_merkleProof",
          "type": "bytes32[]"
        },
        {
          "internalType": "uint8",
          "name": "_nodeIndex",
          "type": "uint8"
        },
        {
          "internalType": "bytes",
          "name": "_appCircuitOutput",
          "type": "bytes"
        }
      ],
      "name": "singleRun",
      "outputs": [],
      "stateMutability": "nonpayable",
      "type": "function"
    },
    {
      "inputs": [
        {
          "internalType": "address",
          "name": "newOwner",
          "type": "address"
        }
      ],
      "name": "transferOwnership",
      "outputs": [],
      "stateMutability": "nonpayable",
      "type": "function"
    },
    {
      "inputs": [
        {
          "internalType": "bytes32",
          "name": "_requestId",
          "type": "bytes32"
        },
        {
          "internalType": "uint64",
          "name": "_chainId",
          "type": "uint64"
        },
        {
          "components": [
            {
              "internalType": "bytes32",
              "name": "smtRoot",
              "type": "bytes32"
            },
            {
              "components": [
                {
                  "internalType": "uint64",
                  "name": "blkNum",
                  "type": "uint64"
                },
                {
                  "internalType": "uint64",
                  "name": "receiptIndex",
                  "type": "uint64"
                },
                {
                  "components": [
                    {
                      "components": [
                        {
                          "internalType": "uint8",
                          "name": "valueFromTopic",
                          "type": "uint8"
                        },
                        {
                          "internalType": "uint64",
                          "name": "valueIndex",
                          "type": "uint64"
                        },
                        {
                          "internalType": "address",
                          "name": "contractAddress",
                          "type": "address"
                        },
                        {
                          "internalType": "bytes32",
                          "name": "logTopic0",
                          "type": "bytes32"
                        }
                      ],
                      "internalType": "struct Brevis.LogExtraInfo",
                      "name": "logExtraInfo",
                      "type": "tuple"
                    },
                    {
                      "internalType": "uint64",
                      "name": "logIndex",
                      "type": "uint64"
                    },
                    {
                      "internalType": "bytes32",
                      "name": "value",
                      "type": "bytes32"
                    }
                  ],
                  "internalType": "struct Brevis.LogInfo[5]",
                  "name": "logs",
                  "type": "tuple[5]"
                }
              ],
              "internalType": "struct Brevis.ReceiptInfo[]",
              "name": "receipts",
              "type": "tuple[]"
            },
            {
              "components": [
                {
                  "internalType": "bytes32",
                  "name": "blockHash",
                  "type": "bytes32"
                },
                {
                  "internalType": "address",
                  "name": "account",
                  "type": "address"
                },
                {
                  "internalType": "bytes32",
                  "name": "slot",
                  "type": "bytes32"
                },
                {
                  "internalType": "bytes32",
                  "name": "slotValue",
                  "type": "bytes32"
                },
                {
                  "internalType": "uint64",
                  "name": "blockNumber",
                  "type": "uint64"
                }
              ],
              "internalType": "struct Brevis.StorageInfo[]",
              "name": "stores",
              "type": "tuple[]"
            },
            {
              "components": [
                {
                  "internalType": "bytes32",
                  "name": "leafHash",
                  "type": "bytes32"
                },
                {
                  "internalType": "bytes32",
                  "name": "blockHash",
                  "type": "bytes32"
                },
                {
                  "internalType": "uint64",
                  "name": "blockNumber",
                  "type": "uint64"
                },
                {
                  "internalType": "uint64",
                  "name": "blockTime",
                  "type": "uint64"
                },
                {
                  "internalType": "bytes",
                  "name": "leafRlpPrefix",
                  "type": "bytes"
                }
              ],
              "internalType": "struct Brevis.TransactionInfo[]",
              "name": "txs",
              "type": "tuple[]"
            }
          ],
          "internalType": "struct Brevis.ExtractInfos",
          "name": "_extractInfos",
          "type": "tuple"
        }
      ],
      "name": "validateRequest",
      "outputs": [
        {
          "internalType": "bool",
          "name": "",
          "type": "bool"
        }
      ],
      "stateMutability": "view",
      "type": "function"
    },
    {
      "inputs": [
        {
          "internalType": "bytes32",
          "name": "",
          "type": "bytes32"
        }
      ],
      "name": "vkHashesToCircuitSize",
      "outputs": [
        {
          "internalType": "uint16",
          "name": "",
          "type": "uint16"
        }
      ],
      "stateMutability": "view",
      "type": "function"
    }
  ],
  "transactionHash": "0x19bc11ae834ad1b4d5cd5b03741a643a2c76648ed70100eb16f992c8eed1fec1",
  "args": [
    "0x6CD95817F275bDf5C9cC401CbCcbFfd99c7f186A"
  ],
  "numDeployments": 14,
  "solcInputHash": "664a78316a0667c92708cb4a54c63b38",
  "bytecode": "0x6080346100a957601f611f4438819003918201601f19168301916001600160401b038311848410176100ae578084926020946040528339810103126100a957516001600160a01b0390818116908190036100a95760018060a01b031990816000541617600055600154903390821617600155604051913391167f8be0079c531659141344cd1fd0a4f28419497f9722a3daafe3b4186f6b6457e0600080a3611e7f90816100c58239f35b600080fd5b634e487b7160e01b600052604160045260246000fdfe60c0604052600436101561001257600080fd5b6000803560e01c80631dd3f354146118ab5780631e83409a14611817578063360fde49146117bb57806343c927a91461179d5780634a30d3eb1461173e5780635419f27c146116f25780635d1c29eb1461151b57806366345da4146114f4578063715018a61461149457806379d6b6a2146111285780637c08aa7414610a315780637f239c4d14610a0a5780638da5cb5b146109e35780639bdcecd1146109bd578063a184a0c71461098f578063ada323ff14610902578063b18c0868146108c1578063b90c209a1461084b578063c772c87f146107db578063c7f5aaa0146107b5578063cdfb583214610743578063d379be231461071c578063ed1fe83b14610238578063f2fde38b146101595763f7c618c11461013057600080fd5b3461015657806003193601126101565760206001600160a01b0360025416604051908152f35b80fd5b503461015657602036600319011261015657610173611a28565b600154906001600160a01b038083169161018e338414611bc7565b169182156101cd576001600160a01b03191682176001557f8be0079c531659141344cd1fd0a4f28419497f9722a3daafe3b4186f6b6457e0600080a380f35b60405162461bcd60e51b815260206004820152602660248201527f4f776e61626c653a206e6577206f776e657220697320746865207a65726f206160448201527f64647265737300000000000000000000000000000000000000000000000000006064820152608490fd5b503461015657606036600319011261015657610252611a52565b6024359067ffffffffffffffff821161071857366023830112156107185767ffffffffffffffff8260040135116107185736602460a0846004013502840101116107185760443567ffffffffffffffff8111610714576102b69036906004016119f7565b9290916102c884836004013514611c5d565b6001600160a01b0385541690813b156107105785906040519063cf7ac5a960e01b825267ffffffffffffffff604483019116600483015260406024830152846004013590526064810192602485019384845b876004013581106106cf57505083918380809303915afa80156106c4576106ac575b505b8260040135811061034d578580f35b610385604061036183866004013586611cce565b0135610378610371848989611cf4565b3691611b80565b6020815191012014611c12565b61039481846004013584611cce565b5060606103a682856004013585611cce565b01356103b3828787611cf4565b90918852600660205261ffff60408920541615610674578060141161066c578060331161066c578060521161066c5780605a1161066c576062908082116106705760821161066c578101356005540361062757601481013560081c908180610558575b610433823560601c605a84013560c01c605285013560c01c611d73565b823560601c8a52600760205260408a209067ffffffffffffffff8151166fffffffffffffffff00000000000000006020845493015160401b16916fffffffffffffffffffffffffffffffff19161717905560086020526001600160f81b0360408a2054166001600160f81b038083168201116105445792605a836001600160f81b0360c09461053f9897828f6040907f865837efc36f96ff0de4b15e50b0ead4bf18a6928f7045e7e39161eebf7c5dc79a3560601c815260086020522091818416011660ff60f81b82541617905560405194833560601c86526020860152603383013560081c60408601521660608401526052810135841c60808401520135821c60a0820152a1611ca9565b61033e565b634e487b7160e01b8a52601160045260248afd5b602460206001600160a01b03600354166040519283809263b72bf50960e01b8252603388013560081c60048301525afa801561061c578a906105cd575b67ffffffffffffffff91501690806001600160f81b03838202160482148115171561054457606491026001600160f81b031604610416565b506020813d602011610614575b816105e760209383611b46565b81010312610610575167ffffffffffffffff811681036106105767ffffffffffffffff90610595565b8980fd5b3d91506105da565b6040513d8c823e3d90fd5b60405162461bcd60e51b815260206004820152601660248201527f696e76616c696420636f6e7472616374732068617368000000000000000000006044820152606490fd5b8780fd5b8880fd5b60405162461bcd60e51b815260206004820152601060248201526f1d9ad2185cda081b9bdd081d985b1a5960821b6044820152606490fd5b6106b590611aac565b6106c057843861033c565b8480fd5b6040513d84823e3d90fd5b81358352602080830135908401526040808301359084015260608083013590840152608080830135908401528a955060a0928301929091019060010161031a565b8580fd5b8380fd5b8280fd5b503461015657806003193601126101565760206001600160a01b0360045416604051908152f35b5034610156576020366003190112610156577fad74290dd7363323a597a949fa2f97ae088f486218d8190369bb417a41a075e36020610780611a28565b6001600160a01b039061079882600154163314611bc7565b16806001600160a01b03196004541617600455604051908152a180f35b50346101565780600319360112610156576001600160a01b036020915416604051908152f35b5034610156576020366003190112610156577f1bf3143ab1544528303e489724067fb6c3ff3f7e3b0a6df041cae24242e447736020610818611a28565b6001600160a01b039061083082600154163314611bc7565b16806001600160a01b0319855416178455604051908152a180f35b5034610156576020366003190112610156576004356001600160a01b03808216809203610718577fae4a28486e59e557cbe94f201dc6e5c485bd89a590bc78f414add8c2f6b4bd8d916108a5602092600154163314611bc7565b806001600160a01b03196003541617600355604051908152a180f35b5034610156576020366003190112610156576001600160f81b0360406020926001600160a01b036108f0611a28565b16815260088452205416604051908152f35b50346101565760403660031901126101565761091c611a28565b60243562ffffff81168103610718577fffffffffffffffffff00000000000000000000000000000000000000000000006001600160a01b0361096381600154163314611bc7565b76ffffff00000000000000000000000000000000000000006002549360a01b1693169116171760025580f35b50346101565760203660031901126101565761ffff6040602092600435815260068452205416604051908152f35b5034610156578060031936011261015657602062ffffff60025460a01c16604051908152f35b503461015657806003193601126101565760206001600160a01b0360015416604051908152f35b503461015657806003193601126101565760206001600160a01b0360035416604051908152f35b503461015657600319606036820112611124576024359067ffffffffffffffff8216820361110f576044359067ffffffffffffffff82116107145760809082360301126107185760405190610a8582611ad6565b80600401358252602481013567ffffffffffffffff81116106c0578101366023820112156106c057600481013590610abc82611b68565b91610aca6040519384611b46565b808352602083019136602483600a1b8301011161066c5760248101925b602483600a1b8301018410610ffb57505050506020830152604481013567ffffffffffffffff81116106c0578101366023820112156106c057600481013590610b2f82611b68565b91610b3d6040519384611b46565b808352602083019136602460a084028301011161066c579160248301925b602460a084028201018410610f975750505050604083015260648101359067ffffffffffffffff82116106c0573660238383010112156106c0576004828201013590610ba682611b68565b92610bb46040519485611b46565b82845260208401913660248560051b84840101011161066c57602482820101925b60248560051b84840101018410610ec957505050505060608201526001600160a01b0383541690813b156107145791839167ffffffffffffffff93604051948593631f022a9d60e21b855260043560048601521660248401526060604484015260e48301908051606485015260208101519160806084860152825180915260206101048601930190865b818110610e06575050506040810151916063198582030160a486015260208084519283815201930190865b818110610da75750505060600151906063198482030160c4850152815180825260208201916020808360051b83010194019287915b838310610cfc57505050505082809103915afa80156106c457610ce8575b602060405160018152f35b610cf28291611aac565b6101565780610cdd565b9295975092955092601f1982820301835260808651805183526020810151602084015267ffffffffffffffff604082015116604084015267ffffffffffffffff606082015116606084015201519060a060808201528151918260a08301528a5b838110610d915750506020600192819260c0918d838284010152601f8019910116010197019301930187959389979592610cbf565b80602080928401015160c0828601015201610d5c565b929496509281955060a060209167ffffffffffffffff608060019551805184526001600160a01b038682015116868501526040810151604085015260608101516060850152015116608082015201950191019086949288969492610c8a565b92949650929094506040855167ffffffffffffffff815116835267ffffffffffffffff60208201511660208401520151604082019089915b60058310610e6357505050602061040060019201950191019086949288969492610c5f565b602060c0600192604085516060815160ff815116855267ffffffffffffffff8782015116878601526001600160a01b038482015116848601520151606084015267ffffffffffffffff85820151166080840152015160a082015201920192019190610e3e565b833567ffffffffffffffff81116106105760a08385018201360360231901126106105760405191610ef983611b0e565b83850182016024810135845260448101356020850152610f1b90606401611a69565b6040840152610f306084838787010101611a69565b606084015260a4828686010101359067ffffffffffffffff8211610f935736604383858989010101011215610f93576024936020938493610f819136918a8a01909101018088013590604401611b80565b60808201528152019401939050610bd5565b8b80fd5b60a0843603126106705760a0806020602494604051610fb581611b0e565b88358152610fc4838a01611a3e565b838201526040890135604082015260608901356060820152610fe860808a01611a69565b6080820152815201950194925050610b5b565b6104008085360312610610576040519061101482611af2565b61101d86611a69565b825261102b60208701611a69565b602083015236605f87011215611120576040519061104882611b0e565b8190368189011161111c5760408801915b818901831061107c57505050604082015281526104009390930192602001610ae7565b60c0833603126111185760405161109281611af2565b60808436031261111457604051916110a983611ad6565b84359160ff8316830361110f578360209360c095526110c9848801611a69565b848201526110d960408801611a3e565b60408201526060870135606082015281526110f660808701611a69565b8382015260a08601356040820152815201920191611059565b600080fd5b8e80fd5b8d80fd5b8c80fd5b8a80fd5b5080fd5b503461015657604036600319011261015657602467ffffffffffffffff81358181116107145761115c903690600401611a7e565b916001600160a01b039084604083885416815197888092632cc27dc960e11b825260043560048301525afa80156114895787968891611450575b506111b46111a5368888611b80565b9788516020809a012014611c12565b87526006865261ffff6040882054161561141a578460141161141657833560601c958560331161066c57601485013560081c918660521161067057603386013560081c9387605a1161061057605287013560c01c968860621161112057605a81013560c01c986082116111205760620135600554036113d25783958415908115611321575b5050611246898989611d73565b898b526007845260408b20918151166fffffffffffffffff000000000000000085845493015160401b16916fffffffffffffffffffffffffffffffff191617179055600882526001600160f81b03808060408c20541696168096019181831161130f57509160c097959391899795937f865837efc36f96ff0de4b15e50b0ead4bf18a6928f7045e7e39161eebf7c5dc79a8c526008835260408c20911660ff60f81b82541617905560405196875286015260408501526060840152608083015260a0820152a180f35b634e487b7160e01b8b5260116004528afd5b83919297508490600354166040519283809263b72bf50960e01b82528a60048301525afa80156113c75787918c9161138d575b5016906001600160f81b03828602169185830414171561137a5760649004943880611239565b50634e487b7160e01b8952601160045288fd5b809250858092503d83116113c0575b6113a68183611b46565b810103126111205751868116810361112057869038611354565b503d61139c565b6040513d8d823e3d90fd5b60405162461bcd60e51b8152600481018490526016818401527f696e76616c696420636f6e7472616374732068617368000000000000000000006044820152606490fd5b8680fd5b8560106064926040519262461bcd60e51b845260048401528201526f1d9ad2185cda081b9bdd081d985b1a5960821b6044820152fd5b9650506040863d604011611481575b8161146c60409383611b46565b81010312611416576020865196015138611196565b3d915061145f565b6040513d89823e3d90fd5b503461015657806003193601126101565760006001546001600160a01b03196001600160a01b038216916114c9338414611bc7565b166001557f8be0079c531659141344cd1fd0a4f28419497f9722a3daafe3b4186f6b6457e08280a380f35b503461015657806003193601126101565760206001600160a01b0360095416604051908152f35b50346101565761014036600319011261015657611536611a52565b60a03660231901126111245767ffffffffffffffff60e435818111610714576115639036906004016119f7565b926101049283359260ff8416809403611416578661012496873584811161071857611592903690600401611a7e565b9790966001600160a01b03968785541692833b1561071057879260405197889687958695632247cd8f60e01b875216600486015260249e8f803590870152604435604487015260643580608052606487015260843560a05260a051608487015260a43560a487015260c43560c487015260e48601610120905285019061161792611d36565b9183015203915afa8015611489576116df575b50611636368585611b80565b9461164b865160208098012060805114611c12565b60a05187526006865261ffff6040882054161561141a578460141161141657833560601c958560331161066c57601485013560081c918660521161067057603386013560081c9387605a1161061057605287013560c01c968860621161112057605a81013560c01c986082116111205760620135600554036113d25783958415908115611321575050611246898989611d73565b6116eb90969196611aac565b943861162a565b503461015657602036600319011261015657604080916001600160a01b03611718611a28565b1681526007602052205481519067ffffffffffffffff908181168352831c166020820152f35b503461015657602036600319011261015657611758611a28565b6001600160a01b039061177082600154163314611bc7565b16801561178b576001600160a01b0319600954161760095580f35b60405163d92e233d60e01b8152600490fd5b50346101565780600319360112610156576020600554604051908152f35b5034610156576020366003190112610156577f7bfc81ef745ea2254ff60bbb4fb7e8855f897b7aa3907ea8eebc957c362d8f5e60206004356118096001600160a01b03600154163314611bc7565b80600555604051908152a180f35b503461015657602036600319011261015657611831611a28565b6001600160a01b039081600954163303611899577f17525e7c25776b686f3c5fb5714aac26a41bdccd536c711002922e7e5ffb4c2c916040911680845260086020526001600160f81b0382852080549060ff60f81b821690558351928352166020820152a180f35b6040516332bc53e960e21b8152600490fd5b50346101565760403660031901126101565767ffffffffffffffff600435818111610718576118de9036906004016119f7565b91602435908111610714576118f79036906004016119f7565b90916001906119116001600160a01b038354163314611bc7565b61191c838614611c5d565b855b8581106119a8575061193c9060405195604087526040870191611d36565b916020838682950382880152828152019392865b82811061198157877fb3f7d79a2f90dac793ddd7d86f2d7d5d073e107289c685083e9d4329f1640f5c88880389a180f35b909192939485359061ffff8216809203610670579081528201948201939291908301611950565b6119b6818587969596611e39565b359061ffff821680920361066c576119ef916119d3828986611e39565b3589526006602052604089209061ffff19825416179055611ca9565b92919261191e565b9181601f8401121561110f5782359167ffffffffffffffff831161110f576020808501948460051b01011161110f57565b600435906001600160a01b038216820361110f57565b35906001600160a01b038216820361110f57565b6004359067ffffffffffffffff8216820361110f57565b359067ffffffffffffffff8216820361110f57565b9181601f8401121561110f5782359167ffffffffffffffff831161110f576020838186019501011161110f57565b67ffffffffffffffff8111611ac057604052565b634e487b7160e01b600052604160045260246000fd5b6080810190811067ffffffffffffffff821117611ac057604052565b6060810190811067ffffffffffffffff821117611ac057604052565b60a0810190811067ffffffffffffffff821117611ac057604052565b6040810190811067ffffffffffffffff821117611ac057604052565b90601f8019910116810190811067ffffffffffffffff821117611ac057604052565b67ffffffffffffffff8111611ac05760051b60200190565b92919267ffffffffffffffff8211611ac05760405191611baa601f8201601f191660200184611b46565b82948184528183011161110f578281602093846000960137010152565b15611bce57565b606460405162461bcd60e51b815260206004820152602060248201527f4f776e61626c653a2063616c6c6572206973206e6f7420746865206f776e65726044820152fd5b15611c1957565b606460405162461bcd60e51b815260206004820152602060248201527f6661696c656420746f206f70656e206f757470757420636f6d6d69746d656e746044820152fd5b15611c6457565b60405162461bcd60e51b815260206004820152601060248201527f6c656e677468206e6f74206d61746368000000000000000000000000000000006044820152606490fd5b6000198114611cb85760010190565b634e487b7160e01b600052601160045260246000fd5b9190811015611cde5760a0020190565b634e487b7160e01b600052603260045260246000fd5b9190811015611cde5760051b81013590601e198136030182121561110f57019081359167ffffffffffffffff831161110f57602001823603811361110f579190565b90918281527f07ffffffffffffffffffffffffffffffffffffffffffffffffffffffffffffff831161110f5760209260051b809284830137010190565b90916001600160a01b03602091604051611d8c81611b2a565b600093818580935201521681526007602052604081209260405193611db085611b2a565b549267ffffffffffffffff9283808087169687895260401c166020880196818852159081611e30575b50611e245785511660010190848211611e10575083809116911614611e0a57604051632d75bc4f60e01b8152600490fd5b16905290565b634e487b7160e01b81526011600452602490fd5b91905016845216905290565b90501538611dd9565b9190811015611cde5760051b019056fea2646970667358221220dc85070f7487acae879ba7894f70030a71b5b44a0c45b141034a77c9b340105d64736f6c63430008140033",
  "devdoc": {
    "kind": "dev",
    "methods": {
      "owner()": {
        "details": "Returns the address of the current owner."
      },
      "renounceOwnership()": {
        "details": "Leaves the contract without owner. It will not be possible to call `onlyOwner` functions anymore. Can only be called by the current owner. NOTE: Renouncing ownership will leave the contract without an owner, thereby removing any functionality that is only available to the owner."
      },
      "transferOwnership(address)": {
        "details": "Transfers ownership of the contract to a new account (`newOwner`). Can only be called by the current owner."
      }
    },
    "version": 1
  },
  "userdoc": {
    "errors": {
      "ZeroAddress()": [
        {
          "notice": "cannot set this value to the zero address"
        }
      ],
      "onlyClaimContractCanAccess()": [
        {
          "notice": "Only Claim Contract can access this"
        }
      ]
    },
    "kind": "user",
    "methods": {},
    "version": 1
  },
  "storageLayout": {
    "storage": [
      {
        "astId": 730,
        "contract": "contracts/FeeReimbursementApp.sol:FeeReimbursementApp",
        "label": "brevisProof",
        "offset": 0,
        "slot": "0",
        "type": "t_contract(IBrevisProof)1010"
      },
      {
        "astId": 7,
        "contract": "contracts/FeeReimbursementApp.sol:FeeReimbursementApp",
        "label": "_owner",
        "offset": 0,
        "slot": "1",
        "type": "t_address"
      },
      {
        "astId": 1523,
        "contract": "contracts/FeeReimbursementApp.sol:FeeReimbursementApp",
        "label": "rewardToken",
        "offset": 0,
        "slot": "2",
        "type": "t_address"
      },
      {
        "astId": 1525,
        "contract": "contracts/FeeReimbursementApp.sol:FeeReimbursementApp",
        "label": "rewardTokenDecimals",
        "offset": 20,
        "slot": "2",
        "type": "t_uint24"
      },
      {
        "astId": 1528,
        "contract": "contracts/FeeReimbursementApp.sol:FeeReimbursementApp",
        "label": "feeRebateTierModule",
        "offset": 0,
        "slot": "3",
        "type": "t_contract(IFeeRebateTierModule)1497"
      },
      {
        "astId": 1530,
        "contract": "contracts/FeeReimbursementApp.sol:FeeReimbursementApp",
        "label": "claimer",
        "offset": 0,
        "slot": "4",
        "type": "t_address"
      },
      {
        "astId": 1532,
        "contract": "contracts/FeeReimbursementApp.sol:FeeReimbursementApp",
        "label": "contractsHash",
        "offset": 0,
        "slot": "5",
        "type": "t_uint256"
      },
      {
        "astId": 1536,
        "contract": "contracts/FeeReimbursementApp.sol:FeeReimbursementApp",
        "label": "vkHashesToCircuitSize",
        "offset": 0,
        "slot": "6",
        "type": "t_mapping(t_bytes32,t_uint16)"
      },
      {
        "astId": 1541,
        "contract": "contracts/FeeReimbursementApp.sol:FeeReimbursementApp",
        "label": "accountClaimPeriod",
        "offset": 0,
        "slot": "7",
        "type": "t_mapping(t_address,t_struct(ClaimPeriod)1502_storage)"
      },
      {
        "astId": 1545,
        "contract": "contracts/FeeReimbursementApp.sol:FeeReimbursementApp",
        "label": "accountAccumulatedFee",
        "offset": 0,
        "slot": "8",
        "type": "t_mapping(t_address,t_uint248)"
      },
      {
        "astId": 1547,
        "contract": "contracts/FeeReimbursementApp.sol:FeeReimbursementApp",
        "label": "claimContract",
        "offset": 0,
        "slot": "9",
        "type": "t_address"
      }
    ],
    "types": {
      "t_address": {
        "encoding": "inplace",
        "label": "address",
        "numberOfBytes": "20"
      },
      "t_bytes32": {
        "encoding": "inplace",
        "label": "bytes32",
        "numberOfBytes": "32"
      },
      "t_contract(IBrevisProof)1010": {
        "encoding": "inplace",
        "label": "contract IBrevisProof",
        "numberOfBytes": "20"
      },
      "t_contract(IFeeRebateTierModule)1497": {
        "encoding": "inplace",
        "label": "contract IFeeRebateTierModule",
        "numberOfBytes": "20"
      },
      "t_mapping(t_address,t_struct(ClaimPeriod)1502_storage)": {
        "encoding": "mapping",
        "key": "t_address",
        "label": "mapping(address => struct ClaimPeriod)",
        "numberOfBytes": "32",
        "value": "t_struct(ClaimPeriod)1502_storage"
      },
      "t_mapping(t_address,t_uint248)": {
        "encoding": "mapping",
        "key": "t_address",
        "label": "mapping(address => uint248)",
        "numberOfBytes": "32",
        "value": "t_uint248"
      },
      "t_mapping(t_bytes32,t_uint16)": {
        "encoding": "mapping",
        "key": "t_bytes32",
        "label": "mapping(bytes32 => uint16)",
        "numberOfBytes": "32",
        "value": "t_uint16"
      },
      "t_struct(ClaimPeriod)1502_storage": {
        "encoding": "inplace",
        "label": "struct ClaimPeriod",
        "members": [
          {
            "astId": 1499,
            "contract": "contracts/FeeReimbursementApp.sol:FeeReimbursementApp",
            "label": "startBlockNumber",
            "offset": 0,
            "slot": "0",
            "type": "t_uint64"
          },
          {
            "astId": 1501,
            "contract": "contracts/FeeReimbursementApp.sol:FeeReimbursementApp",
            "label": "endBlockNumber",
            "offset": 8,
            "slot": "0",
            "type": "t_uint64"
          }
        ],
        "numberOfBytes": "32"
      },
      "t_uint16": {
        "encoding": "inplace",
        "label": "uint16",
        "numberOfBytes": "2"
      },
      "t_uint24": {
        "encoding": "inplace",
        "label": "uint24",
        "numberOfBytes": "3"
      },
      "t_uint248": {
        "encoding": "inplace",
        "label": "uint248",
        "numberOfBytes": "31"
      },
      "t_uint256": {
        "encoding": "inplace",
        "label": "uint256",
        "numberOfBytes": "32"
      },
      "t_uint64": {
        "encoding": "inplace",
        "label": "uint64",
        "numberOfBytes": "8"
      }
    }
  }
}