{
  "address": "0xeD72BFd77aEA61a5E672955029a8dABb67Fd587e",
  "abi": [
    {
      "inputs": [
        {
          "internalType": "address",
          "name": "_brevisProof",
          "type": "address"
        },
        {
          "internalType": "address",
          "name": "_factory",
          "type": "address"
        },
        {
          "internalType": "address",
          "name": "_migrationContract",
          "type": "address"
        }
      ],
      "stateMutability": "nonpayable",
      "type": "constructor"
    },
    {
      "inputs": [],
      "name": "InvalidNewClaimPeriod",
      "type": "error"
    },
    {
      "anonymous": false,
      "inputs": [
        {
          "indexed": false,
          "internalType": "address",
          "name": "",
          "type": "address"
        }
      ],
      "name": "BrevisProofUpdated",
      "type": "event"
    },
    {
      "anonymous": false,
      "inputs": [
        {
          "indexed": false,
          "internalType": "address",
          "name": "",
          "type": "address"
        }
      ],
      "name": "ClaimerUpdated",
      "type": "event"
    },
    {
      "anonymous": false,
      "inputs": [
        {
          "indexed": false,
          "internalType": "uint256",
          "name": "",
          "type": "uint256"
        }
      ],
      "name": "ContractsHashUpdated",
      "type": "event"
    },
    {
      "anonymous": false,
      "inputs": [
        {
          "indexed": false,
          "internalType": "address",
          "name": "account",
          "type": "address"
        },
        {
          "indexed": false,
          "internalType": "uint248",
          "name": "feeRebate",
          "type": "uint248"
        },
        {
          "indexed": false,
          "internalType": "uint248",
          "name": "volume30D",
          "type": "uint248"
        },
        {
          "indexed": false,
          "internalType": "uint248",
          "name": "feeRebateWithRate",
          "type": "uint248"
        },
        {
          "indexed": false,
          "internalType": "uint64",
          "name": "startBlockNumber",
          "type": "uint64"
        },
        {
          "indexed": false,
          "internalType": "uint64",
          "name": "endBlockNumber",
          "type": "uint64"
        }
      ],
      "name": "FeeRebateAccumulated",
      "type": "event"
    },
    {
      "anonymous": false,
      "inputs": [
        {
          "indexed": false,
          "internalType": "address",
          "name": "",
          "type": "address"
        }
      ],
      "name": "FeeRebateTireModuleUpdated",
      "type": "event"
    },
    {
      "anonymous": false,
      "inputs": [
        {
          "indexed": false,
          "internalType": "address",
          "name": "account",
          "type": "address"
        },
        {
          "indexed": false,
          "internalType": "uint248",
          "name": "feeRebate",
          "type": "uint248"
        }
      ],
      "name": "FeeReimbursed",
      "type": "event"
    },
    {
      "anonymous": false,
      "inputs": [],
      "name": "MigrationDone",
      "type": "event"
    },
    {
      "anonymous": false,
      "inputs": [
        {
          "indexed": false,
          "internalType": "address",
          "name": "account",
          "type": "address"
        },
        {
          "indexed": false,
          "internalType": "uint248",
          "name": "feeAccumulated",
          "type": "uint248"
        },
        {
          "indexed": false,
          "internalType": "uint64",
          "name": "startBlockNumber",
          "type": "uint64"
        },
        {
          "indexed": false,
          "internalType": "uint64",
          "name": "endBlockNumber",
          "type": "uint64"
        }
      ],
      "name": "MigrationFinishedForAccount",
      "type": "event"
    },
    {
      "anonymous": false,
      "inputs": [
        {
          "indexed": true,
          "internalType": "address",
          "name": "previousOwner",
          "type": "address"
        },
        {
          "indexed": true,
          "internalType": "address",
          "name": "newOwner",
          "type": "address"
        }
      ],
      "name": "OwnershipTransferred",
      "type": "event"
    },
    {
      "anonymous": false,
      "inputs": [
        {
          "indexed": false,
          "internalType": "bytes32[]",
          "name": "vkHashes",
          "type": "bytes32[]"
        },
        {
          "indexed": false,
          "internalType": "uint16[]",
          "name": "sizes",
          "type": "uint16[]"
        }
      ],
      "name": "VkHashesUpdated",
      "type": "event"
    },
    {
      "inputs": [
        {
          "internalType": "address",
          "name": "",
          "type": "address"
        }
      ],
      "name": "accountAccumulatedFee",
      "outputs": [
        {
          "internalType": "uint248",
          "name": "",
          "type": "uint248"
        }
      ],
      "stateMutability": "view",
      "type": "function"
    },
    {
      "inputs": [
        {
          "internalType": "address",
          "name": "",
          "type": "address"
        }
      ],
      "name": "accountClaimPeriod",
      "outputs": [
        {
          "internalType": "uint64",
          "name": "startBlockNumber",
          "type": "uint64"
        },
        {
          "internalType": "uint64",
          "name": "endBlockNumber",
          "type": "uint64"
        }
      ],
      "stateMutability": "view",
      "type": "function"
    },
    {
      "inputs": [
        {
          "internalType": "uint64",
          "name": "_chainId",
          "type": "uint64"
        },
        {
          "components": [
            {
              "internalType": "bytes32",
              "name": "commitHash",
              "type": "bytes32"
            },
            {
              "internalType": "bytes32",
              "name": "vkHash",
              "type": "bytes32"
            },
            {
              "internalType": "bytes32",
              "name": "appCommitHash",
              "type": "bytes32"
            },
            {
              "internalType": "bytes32",
              "name": "appVkHash",
              "type": "bytes32"
            },
            {
              "internalType": "bytes32",
              "name": "smtRoot",
              "type": "bytes32"
            }
          ],
          "internalType": "struct Brevis.ProofData[]",
          "name": "_proofDataArray",
          "type": "tuple[]"
        },
        {
          "internalType": "bytes[]",
          "name": "_appCircuitOutputs",
          "type": "bytes[]"
        }
      ],
      "name": "brevisBatchCallback",
      "outputs": [],
      "stateMutability": "nonpayable",
      "type": "function"
    },
    {
      "inputs": [
        {
          "internalType": "bytes32",
          "name": "_requestId",
          "type": "bytes32"
        },
        {
          "internalType": "bytes",
          "name": "_appCircuitOutput",
          "type": "bytes"
        }
      ],
      "name": "brevisCallback",
      "outputs": [],
      "stateMutability": "nonpayable",
      "type": "function"
    },
    {
      "inputs": [],
      "name": "brevisProof",
      "outputs": [
        {
          "internalType": "contract IBrevisProof",
          "name": "",
          "type": "address"
        }
      ],
      "stateMutability": "view",
      "type": "function"
    },
    {
      "inputs": [
        {
          "internalType": "address",
          "name": "account",
          "type": "address"
        }
      ],
      "name": "claim",
      "outputs": [],
      "stateMutability": "nonpayable",
      "type": "function"
    },
    {
      "inputs": [],
      "name": "claimer",
      "outputs": [
        {
          "internalType": "address",
          "name": "",
          "type": "address"
        }
      ],
      "stateMutability": "view",
      "type": "function"
    },
    {
      "inputs": [],
      "name": "contractsHash",
      "outputs": [
        {
          "internalType": "uint256",
          "name": "",
          "type": "uint256"
        }
      ],
      "stateMutability": "view",
      "type": "function"
    },
    {
      "inputs": [],
      "name": "factory",
      "outputs": [
        {
          "internalType": "contract IFactory",
          "name": "",
          "type": "address"
        }
      ],
      "stateMutability": "view",
      "type": "function"
    },
    {
      "inputs": [],
      "name": "feeRebateTierModule",
      "outputs": [
        {
          "internalType": "contract IFeeRebateTierModule",
          "name": "",
          "type": "address"
        }
      ],
      "stateMutability": "view",
      "type": "function"
    },
    {
      "inputs": [
        {
          "internalType": "address[]",
          "name": "_accounts",
          "type": "address[]"
        }
      ],
      "name": "migrate",
      "outputs": [],
      "stateMutability": "nonpayable",
      "type": "function"
    },
    {
      "inputs": [],
      "name": "migrationContract",
      "outputs": [
        {
          "internalType": "contract IMigration",
          "name": "",
          "type": "address"
        }
      ],
      "stateMutability": "view",
      "type": "function"
    },
    {
      "inputs": [],
      "name": "owner",
      "outputs": [
        {
          "internalType": "address",
          "name": "",
          "type": "address"
        }
      ],
      "stateMutability": "view",
      "type": "function"
    },
    {
      "inputs": [],
      "name": "renounceOwnership",
      "outputs": [],
      "stateMutability": "nonpayable",
      "type": "function"
    },
    {
      "inputs": [],
      "name": "rewardToken",
      "outputs": [
        {
          "internalType": "address",
          "name": "",
          "type": "address"
        }
      ],
      "stateMutability": "view",
      "type": "function"
    },
    {
      "inputs": [],
      "name": "rewardTokenDecimals",
      "outputs": [
        {
          "internalType": "uint24",
          "name": "",
          "type": "uint24"
        }
      ],
      "stateMutability": "view",
      "type": "function"
    },
    {
      "inputs": [
        {
          "internalType": "address",
          "name": "_brevisProof",
          "type": "address"
        }
      ],
      "name": "setBrevisProof",
      "outputs": [],
      "stateMutability": "nonpayable",
      "type": "function"
    },
    {
      "inputs": [
        {
          "internalType": "address",
          "name": "_claimer",
          "type": "address"
        }
      ],
      "name": "setClaimer",
      "outputs": [],
      "stateMutability": "nonpayable",
      "type": "function"
    },
    {
      "inputs": [
        {
          "internalType": "uint256",
          "name": "_contractsHash",
          "type": "uint256"
        }
      ],
      "name": "setContractsHash",
      "outputs": [],
      "stateMutability": "nonpayable",
      "type": "function"
    },
    {
      "inputs": [
        {
          "internalType": "contract IFeeRebateTierModule",
          "name": "_feeRebateTierModule",
          "type": "address"
        }
      ],
      "name": "setFeeRebateTierModule",
      "outputs": [],
      "stateMutability": "nonpayable",
      "type": "function"
    },
    {
      "inputs": [],
      "name": "setMigrationFinished",
      "outputs": [],
      "stateMutability": "nonpayable",
      "type": "function"
    },
    {
      "inputs": [
        {
          "internalType": "address",
          "name": "_rewardToken",
          "type": "address"
        },
        {
          "internalType": "uint24",
          "name": "_decimals",
          "type": "uint24"
        }
      ],
      "name": "setRewardToken",
      "outputs": [],
      "stateMutability": "nonpayable",
      "type": "function"
    },
    {
      "inputs": [
        {
          "internalType": "bytes32[]",
          "name": "_vkHashes",
          "type": "bytes32[]"
        },
        {
          "internalType": "uint16[]",
          "name": "_sizes",
          "type": "uint16[]"
        }
      ],
      "name": "setVkHashes",
      "outputs": [],
      "stateMutability": "nonpayable",
      "type": "function"
    },
    {
      "inputs": [
        {
          "internalType": "uint64",
          "name": "_chainId",
          "type": "uint64"
        },
        {
          "components": [
            {
              "internalType": "bytes32",
              "name": "commitHash",
              "type": "bytes32"
            },
            {
              "internalType": "bytes32",
              "name": "vkHash",
              "type": "bytes32"
            },
            {
              "internalType": "bytes32",
              "name": "appCommitHash",
              "type": "bytes32"
            },
            {
              "internalType": "bytes32",
              "name": "appVkHash",
              "type": "bytes32"
            },
            {
              "internalType": "bytes32",
              "name": "smtRoot",
              "type": "bytes32"
            }
          ],
          "internalType": "struct Brevis.ProofData",
          "name": "_proofData",
          "type": "tuple"
        },
        {
          "internalType": "bytes32",
          "name": "_merkleRoot",
          "type": "bytes32"
        },
        {
          "internalType": "bytes32[]",
          "name": "_merkleProof",
          "type": "bytes32[]"
        },
        {
          "internalType": "uint8",
          "name": "_nodeIndex",
          "type": "uint8"
        },
        {
          "internalType": "bytes",
          "name": "_appCircuitOutput",
          "type": "bytes"
        }
      ],
      "name": "singleRun",
      "outputs": [],
      "stateMutability": "nonpayable",
      "type": "function"
    },
    {
      "inputs": [
        {
          "internalType": "address",
          "name": "newOwner",
          "type": "address"
        }
      ],
      "name": "transferOwnership",
      "outputs": [],
      "stateMutability": "nonpayable",
      "type": "function"
    },
    {
      "inputs": [
        {
          "internalType": "bytes32",
          "name": "_requestId",
          "type": "bytes32"
        },
        {
          "internalType": "uint64",
          "name": "_chainId",
          "type": "uint64"
        },
        {
          "components": [
            {
              "internalType": "bytes32",
              "name": "smtRoot",
              "type": "bytes32"
            },
            {
              "components": [
                {
                  "internalType": "uint64",
                  "name": "blkNum",
                  "type": "uint64"
                },
                {
                  "internalType": "uint64",
                  "name": "receiptIndex",
                  "type": "uint64"
                },
                {
                  "components": [
                    {
                      "components": [
                        {
                          "internalType": "uint8",
                          "name": "valueFromTopic",
                          "type": "uint8"
                        },
                        {
                          "internalType": "uint64",
                          "name": "valueIndex",
                          "type": "uint64"
                        },
                        {
                          "internalType": "address",
                          "name": "contractAddress",
                          "type": "address"
                        },
                        {
                          "internalType": "bytes32",
                          "name": "logTopic0",
                          "type": "bytes32"
                        }
                      ],
                      "internalType": "struct Brevis.LogExtraInfo",
                      "name": "logExtraInfo",
                      "type": "tuple"
                    },
                    {
                      "internalType": "uint64",
                      "name": "logIndex",
                      "type": "uint64"
                    },
                    {
                      "internalType": "bytes32",
                      "name": "value",
                      "type": "bytes32"
                    }
                  ],
                  "internalType": "struct Brevis.LogInfo[5]",
                  "name": "logs",
                  "type": "tuple[5]"
                }
              ],
              "internalType": "struct Brevis.ReceiptInfo[]",
              "name": "receipts",
              "type": "tuple[]"
            },
            {
              "components": [
                {
                  "internalType": "bytes32",
                  "name": "blockHash",
                  "type": "bytes32"
                },
                {
                  "internalType": "address",
                  "name": "account",
                  "type": "address"
                },
                {
                  "internalType": "bytes32",
                  "name": "slot",
                  "type": "bytes32"
                },
                {
                  "internalType": "bytes32",
                  "name": "slotValue",
                  "type": "bytes32"
                },
                {
                  "internalType": "uint64",
                  "name": "blockNumber",
                  "type": "uint64"
                }
              ],
              "internalType": "struct Brevis.StorageInfo[]",
              "name": "stores",
              "type": "tuple[]"
            },
            {
              "components": [
                {
                  "internalType": "bytes32",
                  "name": "leafHash",
                  "type": "bytes32"
                },
                {
                  "internalType": "bytes32",
                  "name": "blockHash",
                  "type": "bytes32"
                },
                {
                  "internalType": "uint64",
                  "name": "blockNumber",
                  "type": "uint64"
                },
                {
                  "internalType": "uint64",
                  "name": "blockTime",
                  "type": "uint64"
                },
                {
                  "internalType": "bytes",
                  "name": "leafRlpPrefix",
                  "type": "bytes"
                }
              ],
              "internalType": "struct Brevis.TransactionInfo[]",
              "name": "txs",
              "type": "tuple[]"
            }
          ],
          "internalType": "struct Brevis.ExtractInfos",
          "name": "_extractInfos",
          "type": "tuple"
        }
      ],
      "name": "validateRequest",
      "outputs": [
        {
          "internalType": "bool",
          "name": "",
          "type": "bool"
        }
      ],
      "stateMutability": "view",
      "type": "function"
    },
    {
      "inputs": [
        {
          "internalType": "bytes32",
          "name": "",
          "type": "bytes32"
        }
      ],
      "name": "vkHashesToCircuitSize",
      "outputs": [
        {
          "internalType": "uint16",
          "name": "",
          "type": "uint16"
        }
      ],
      "stateMutability": "view",
      "type": "function"
    }
  ],
  "transactionHash": "0x34a9d9e2b21227431382dd96bb150f8cd190884f8f7573d9790c23306f202bfc",
  "args": [
    "0xB876cc05c3C3C8ECBA65dAc4CF69CaF871F2e0DD",
    "0x8234F990b149Ae59416dc260305E565e5DAfEb54",
    "0x1345c8a6b99536531f1fa3cfe37d8a5b7fc859aa"
  ],
  "numDeployments": 11,
  "solcInputHash": "08fb721b5fd82a63372e7f8996557419",
  "bytecode": "0x608034620000fc57601f620023b638819003918201601f19168301916001600160401b038311848410176200010157808492606094604052833981010312620000fc576200004d8162000117565b620000696040620000616020850162000117565b930162000117565b9060018060a01b038060018060a01b0319921682600054161760005560015493338386161760015560405194823391167f8be0079c531659141344cd1fd0a4f28419497f9722a3daafe3b4186f6b6457e0600080a3600480549093169116179055600a8054610100600160a81b03191660089290921b610100600160a81b031691909117905561228990816200012d8239f35b600080fd5b634e487b7160e01b600052604160045260246000fd5b51906001600160a01b0382168203620000fc5756fe60c080604052600436101561001357600080fd5b600090813560e01c9081630fee1a2014611dc0575080631dd3f35414611c745780631e83409a14611b3f5780632e558d6914611821578063360fde49146117c557806343c927a9146117a75780634833b80e1461174c5780635419f27c146117005780635d1c29eb14611529578063715018a6146114c957806379d6b6a21461115f5780637c08aa7414610a685780637f239c4d14610a415780638da5cb5b14610a1a5780639bdcecd1146109f4578063a184a0c7146109c6578063ada323ff14610939578063b18c0868146108f8578063b90c209a14610882578063c45a01551461085b578063c772c87f146107eb578063c7f5aaa0146107c5578063cdfb583214610753578063d379be231461072c578063ed1fe83b14610252578063f2fde38b146101735763f7c618c11461014a57600080fd5b3461017057806003193601126101705760206001600160a01b0360025416604051908152f35b80fd5b50346101705760203660031901126101705761018d611e19565b600154906001600160a01b03808316916101a8338414611fb8565b169182156101e7576001600160a01b03191682176001557f8be0079c531659141344cd1fd0a4f28419497f9722a3daafe3b4186f6b6457e0600080a380f35b60405162461bcd60e51b815260206004820152602660248201527f4f776e61626c653a206e6577206f776e657220697320746865207a65726f206160448201527f64647265737300000000000000000000000000000000000000000000000000006064820152608490fd5b50346101705760603660031901126101705761026c611e43565b6024359067ffffffffffffffff821161072857366023830112156107285767ffffffffffffffff8260040135116107285736602460a0846004013502840101116107285760443567ffffffffffffffff8111610724576102d0903690600401611de8565b9290916102e28483600401351461204e565b6001600160a01b0385541690813b156107205785906040519063cf7ac5a960e01b825267ffffffffffffffff604483019116600483015260406024830152846004013590526064810192602485019384845b876004013581106106df57505083918380809303915afa80156106d4576106bc575b505b82600401358110610367578580f35b61039f604061037b838660040135866120bf565b013561039261038b8489896120e5565b3691611f71565b6020815191012014612003565b6103ae818460040135846120bf565b5060606103c0828560040135856120bf565b01356103cd8287876120e5565b90918852600760205261ffff60408920541615610684578060141161067c578060331161067c578060521161067c5780605a1161067c576062908082116106805760821161067c578101356006540361063757601481013560081c908180610572575b61044d823560601c605a84013560c01c605285013560c01c612179565b823560601c8a52600860205260408a209067ffffffffffffffff8151166fffffffffffffffff00000000000000006020845493015160401b16916fffffffffffffffffffffffffffffffff19161717905560096020526001600160f81b0360408a2054166001600160f81b0380831682011161055e5792605a836001600160f81b0360c0946105599897828f6040907f865837efc36f96ff0de4b15e50b0ead4bf18a6928f7045e7e39161eebf7c5dc79a3560601c815260096020522091818416011660ff60f81b82541617905560405194833560601c86526020860152603383013560081c60408601521660608401526052810135841c60808401520135821c60a0820152a161209a565b610358565b634e487b7160e01b8a52601160045260248afd5b602460206001600160a01b03600354166040519283809263b72bf50960e01b8252603388013560081c60048301525afa801561062c578a906105e7575b67ffffffffffffffff91501690806001600160f81b03838202160482148115171561055e57606491026001600160f81b031604610430565b506020813d602011610624575b8161060160209383611f37565b810103126106205761061b67ffffffffffffffff91612164565b6105af565b8980fd5b3d91506105f4565b6040513d8c823e3d90fd5b60405162461bcd60e51b815260206004820152601660248201527f696e76616c696420636f6e7472616374732068617368000000000000000000006044820152606490fd5b8780fd5b8880fd5b60405162461bcd60e51b815260206004820152601060248201526f1d9ad2185cda081b9bdd081d985b1a5960821b6044820152606490fd5b6106c590611e9d565b6106d0578438610356565b8480fd5b6040513d84823e3d90fd5b81358352602080830135908401526040808301359084015260608083013590840152608080830135908401528a955060a09283019290910190600101610334565b8580fd5b8380fd5b8280fd5b503461017057806003193601126101705760206001600160a01b0360055416604051908152f35b5034610170576020366003190112610170577fad74290dd7363323a597a949fa2f97ae088f486218d8190369bb417a41a075e36020610790611e19565b6001600160a01b03906107a882600154163314611fb8565b16806001600160a01b03196005541617600555604051908152a180f35b50346101705780600319360112610170576001600160a01b036020915416604051908152f35b5034610170576020366003190112610170577f1bf3143ab1544528303e489724067fb6c3ff3f7e3b0a6df041cae24242e447736020610828611e19565b6001600160a01b039061084082600154163314611fb8565b16806001600160a01b0319855416178455604051908152a180f35b503461017057806003193601126101705760206001600160a01b0360045416604051908152f35b5034610170576020366003190112610170576004356001600160a01b03808216809203610728577fae4a28486e59e557cbe94f201dc6e5c485bd89a590bc78f414add8c2f6b4bd8d916108dc602092600154163314611fb8565b806001600160a01b03196003541617600355604051908152a180f35b5034610170576020366003190112610170576001600160f81b0360406020926001600160a01b03610927611e19565b16815260098452205416604051908152f35b503461017057604036600319011261017057610953611e19565b60243562ffffff81168103610728577fffffffffffffffffff00000000000000000000000000000000000000000000006001600160a01b0361099a81600154163314611fb8565b76ffffff00000000000000000000000000000000000000006002549360a01b1693169116171760025580f35b50346101705760203660031901126101705761ffff6040602092600435815260078452205416604051908152f35b5034610170578060031936011261017057602062ffffff60025460a01c16604051908152f35b503461017057806003193601126101705760206001600160a01b0360015416604051908152f35b503461017057806003193601126101705760206001600160a01b0360035416604051908152f35b50346101705760031960603682011261115b576024359067ffffffffffffffff82168203611146576044359067ffffffffffffffff82116107245760809082360301126107285760405190610abc82611ec7565b80600401358252602481013567ffffffffffffffff81116106d0578101366023820112156106d057600481013590610af382611f59565b91610b016040519384611f37565b808352602083019136602483600a1b8301011161067c5760248101925b602483600a1b830101841061103257505050506020830152604481013567ffffffffffffffff81116106d0578101366023820112156106d057600481013590610b6682611f59565b91610b746040519384611f37565b808352602083019136602460a084028301011161067c579160248301925b602460a084028201018410610fce5750505050604083015260648101359067ffffffffffffffff82116106d0573660238383010112156106d0576004828201013590610bdd82611f59565b92610beb6040519485611f37565b82845260208401913660248560051b84840101011161067c57602482820101925b60248560051b84840101018410610f0057505050505060608201526001600160a01b0383541690813b156107245791839167ffffffffffffffff93604051948593631f022a9d60e21b855260043560048601521660248401526060604484015260e48301908051606485015260208101519160806084860152825180915260206101048601930190865b818110610e3d575050506040810151916063198582030160a486015260208084519283815201930190865b818110610dde5750505060600151906063198482030160c4850152815180825260208201916020808360051b83010194019287915b838310610d3357505050505082809103915afa80156106d457610d1f575b602060405160018152f35b610d298291611e9d565b6101705780610d14565b9295975092955092601f1982820301835260808651805183526020810151602084015267ffffffffffffffff604082015116604084015267ffffffffffffffff606082015116606084015201519060a060808201528151918260a08301528a5b838110610dc85750506020600192819260c0918d838284010152601f8019910116010197019301930187959389979592610cf6565b80602080928401015160c0828601015201610d93565b929496509281955060a060209167ffffffffffffffff608060019551805184526001600160a01b038682015116868501526040810151604085015260608101516060850152015116608082015201950191019086949288969492610cc1565b92949650929094506040855167ffffffffffffffff815116835267ffffffffffffffff60208201511660208401520151604082019089915b60058310610e9a57505050602061040060019201950191019086949288969492610c96565b602060c0600192604085516060815160ff815116855267ffffffffffffffff8782015116878601526001600160a01b038482015116848601520151606084015267ffffffffffffffff85820151166080840152015160a082015201920192019190610e75565b833567ffffffffffffffff81116106205760a08385018201360360231901126106205760405191610f3083611eff565b83850182016024810135845260448101356020850152610f5290606401611e5a565b6040840152610f676084838787010101611e5a565b606084015260a4828686010101359067ffffffffffffffff8211610fca5736604383858989010101011215610fca576024936020938493610fb89136918a8a01909101018088013590604401611f71565b60808201528152019401939050610c0c565b8b80fd5b60a0843603126106805760a0806020602494604051610fec81611eff565b88358152610ffb838a01611e2f565b83820152604089013560408201526060890135606082015261101f60808a01611e5a565b6080820152815201950194925050610b92565b6104008085360312610620576040519061104b82611ee3565b61105486611e5a565b825261106260208701611e5a565b602083015236605f87011215611157576040519061107f82611eff565b819036818901116111535760408801915b81890183106110b357505050604082015281526104009390930192602001610b1e565b60c08336031261114f576040516110c981611ee3565b60808436031261114b57604051916110e083611ec7565b84359160ff83168303611146578360209360c09552611100848801611e5a565b8482015261111060408801611e2f565b604082015260608701356060820152815261112d60808701611e5a565b8382015260a08601356040820152815201920191611090565b600080fd5b8e80fd5b8d80fd5b8c80fd5b8a80fd5b5080fd5b503461017057604036600319011261017057602467ffffffffffffffff813581811161072457611193903690600401611e6f565b916001600160a01b039084604083885416815197888092632cc27dc960e11b825260043560048301525afa80156114be5787968891611485575b506111eb6111dc368888611f71565b9788516020809a012014612003565b87526007865261ffff6040882054161561144f578460141161144b57833560601c958560331161067c57601485013560081c918660521161068057603386013560081c9387605a1161062057605287013560c01c968860621161115757605a81013560c01c986082116111575760620135600654036114075783958415908115611358575b505061127d898989612179565b898b526008845260408b20918151166fffffffffffffffff000000000000000085845493015160401b16916fffffffffffffffffffffffffffffffff191617179055600982526001600160f81b03808060408c20541696168096019181831161134657509160c097959391899795937f865837efc36f96ff0de4b15e50b0ead4bf18a6928f7045e7e39161eebf7c5dc79a8c526009835260408c20911660ff60f81b82541617905560405196875286015260408501526060840152608083015260a0820152a180f35b634e487b7160e01b8b5260116004528afd5b83919297508490600354166040519283809263b72bf50960e01b82528a60048301525afa80156113fc5787918c916113c4575b5016906001600160f81b0382860216918583041417156113b15760649004943880611270565b50634e487b7160e01b8952601160045288fd5b809250858092503d83116113f5575b6113dd8183611f37565b81010312611157576113ef8791612164565b3861138b565b503d6113d3565b6040513d8d823e3d90fd5b60405162461bcd60e51b8152600481018490526016818401527f696e76616c696420636f6e7472616374732068617368000000000000000000006044820152606490fd5b8680fd5b8560106064926040519262461bcd60e51b845260048401528201526f1d9ad2185cda081b9bdd081d985b1a5960821b6044820152fd5b9650506040863d6040116114b6575b816114a160409383611f37565b8101031261144b5760208651960151386111cd565b3d9150611494565b6040513d89823e3d90fd5b503461017057806003193601126101705760006001546001600160a01b03196001600160a01b038216916114fe338414611fb8565b166001557f8be0079c531659141344cd1fd0a4f28419497f9722a3daafe3b4186f6b6457e08280a380f35b50346101705761014036600319011261017057611544611e43565b60a036602319011261115b5767ffffffffffffffff60e43581811161072457611571903690600401611de8565b926101049283359260ff841680940361144b5786610124968735848111610728576115a0903690600401611e6f565b9790966001600160a01b03968785541692833b1561072057879260405197889687958695632247cd8f60e01b875216600486015260249e8f803590870152604435604487015260643580608052606487015260843560a05260a051608487015260a43560a487015260c43560c487015260e48601610120905285019061162592612127565b9183015203915afa80156114be576116ed575b50611644368585611f71565b94611659865160208098012060805114612003565b60a05187526007865261ffff6040882054161561144f578460141161144b57833560601c958560331161067c57601485013560081c918660521161068057603386013560081c9387605a1161062057605287013560c01c968860621161115757605a81013560c01c98608211611157576062013560065403611407578395841590811561135857505061127d898989612179565b6116f990969196611e9d565b9438611638565b503461017057602036600319011261017057604080916001600160a01b03611726611e19565b1681526008602052205481519067ffffffffffffffff908181168352831c166020820152f35b50346101705780600319360112610170576117736001600160a01b03600154163314611fb8565b600160ff19600a541617600a557f11ff4b502208a76eac8b357cc5da037a8d078a5f6b3e0907a3477bc977f7a6bc8180a180f35b50346101705780600319360112610170576020600654604051908152f35b5034610170576020366003190112610170577f7bfc81ef745ea2254ff60bbb4fb7e8855f897b7aa3907ea8eebc957c362d8f5e60206004356118136001600160a01b03600154163314611fb8565b80600655604051908152a180f35b50346101705760208060031936011261115b5767ffffffffffffffff9060043582811161072457611856903690600401611de8565b916001600160a01b039261186f84600154163314611fb8565b600a9260ff845416611afa57865b828110611888578780f35b8454908861189f61189a83878761222f565b61223f565b928860405194631631810d60e31b86521660048501526024878582818d600896871c165afa948515611ab0578395611abb575b50896118e261189a868a8a61222f565b168352600988526001600160f81b03604084209516948560ff60f81b82541617905560408a808b54851c169261191c61189a888c8c61222f565b835194859384926315067c9f60e21b84521660048301525afa908115611ab057838c938c8a8c958b98958591611a13575b5087948794611a0e9c987f6a27ddc093ce48b1e92d52b8fc6f88bb3ec7b56ece49c43fc8d550d5bc954ca39b98956119aa61189a8f8b9860809f6040998a519e8f9e8f61199981611f1b565b019d169e8f9052169d8e8c5261222f565b16835252209251166fffffffffffffffff00000000000000008354925160401b16916fffffffffffffffffffffffffffffffff1916171790556119f161189a878b8b61222f565b928c604051941684528a84015260408301526060820152a161209a565b61187d565b9a965050505093509350506040853d604011611aa8575b81611a3760409383611f37565b8101031261072857858b89878260408f98608098858f9b6119aa611a0e9f8f7f6a27ddc093ce48b1e92d52b8fc6f88bb3ec7b56ece49c43fc8d550d5bc954ca39f89611a9087611a8961189a96612164565b9d01612164565b995050985050505095989b505094979b50949761194d565b3d9150611a2a565b6040513d85823e3d90fd5b9094508781813d8311611af3575b611ad38183611f37565b8101031261072857516001600160f81b03811681036107285793386118d2565b503d611ac9565b60405162461bcd60e51b815260048101849052601260248201527f6d6967726174696f6e2066696e697368656400000000000000000000000000006044820152606490fd5b50346101705760208060031936011261115b57611b5a611e19565b906001600160a01b03808281600454169460246040518094819363110ac5cb60e21b835216978860048301525afa908115611c69578591611c33575b50163303611bef57816040917f17525e7c25776b686f3c5fb5714aac26a41bdccd536c711002922e7e5ffb4c2c938552600981526001600160f81b0383862080549060ff60f81b8216905584519384521690820152a180f35b6064906040519062461bcd60e51b82526004820152601760248201527f696e76616c696420636c61696d657220616464726573730000000000000000006044820152fd5b90508281813d8311611c62575b611c4a8183611f37565b810103126106d0575181811681036106d05738611b96565b503d611c40565b6040513d87823e3d90fd5b50346101705760403660031901126101705767ffffffffffffffff60043581811161072857611ca7903690600401611de8565b9160243590811161072457611cc0903690600401611de8565b9091600190611cda6001600160a01b038354163314611fb8565b611ce583861461204e565b855b858110611d715750611d059060405195604087526040870191612127565b916020838682950382880152828152019392865b828110611d4a57877fb3f7d79a2f90dac793ddd7d86f2d7d5d073e107289c685083e9d4329f1640f5c88880389a180f35b909192939485359061ffff8216809203610680579081528201948201939291908301611d19565b611d7f81858796959661222f565b359061ffff821680920361067c57611db891611d9c82898661222f565b3589526007602052604089209061ffff1982541617905561209a565b929192611ce7565b90503461115b578160031936011261115b576020906001600160a01b03600a5460081c168152f35b9181601f840112156111465782359167ffffffffffffffff8311611146576020808501948460051b01011161114657565b600435906001600160a01b038216820361114657565b35906001600160a01b038216820361114657565b6004359067ffffffffffffffff8216820361114657565b359067ffffffffffffffff8216820361114657565b9181601f840112156111465782359167ffffffffffffffff8311611146576020838186019501011161114657565b67ffffffffffffffff8111611eb157604052565b634e487b7160e01b600052604160045260246000fd5b6080810190811067ffffffffffffffff821117611eb157604052565b6060810190811067ffffffffffffffff821117611eb157604052565b60a0810190811067ffffffffffffffff821117611eb157604052565b6040810190811067ffffffffffffffff821117611eb157604052565b90601f8019910116810190811067ffffffffffffffff821117611eb157604052565b67ffffffffffffffff8111611eb15760051b60200190565b92919267ffffffffffffffff8211611eb15760405191611f9b601f8201601f191660200184611f37565b829481845281830111611146578281602093846000960137010152565b15611fbf57565b606460405162461bcd60e51b815260206004820152602060248201527f4f776e61626c653a2063616c6c6572206973206e6f7420746865206f776e65726044820152fd5b1561200a57565b606460405162461bcd60e51b815260206004820152602060248201527f6661696c656420746f206f70656e206f757470757420636f6d6d69746d656e746044820152fd5b1561205557565b60405162461bcd60e51b815260206004820152601060248201527f6c656e677468206e6f74206d61746368000000000000000000000000000000006044820152606490fd5b60001981146120a95760010190565b634e487b7160e01b600052601160045260246000fd5b91908110156120cf5760a0020190565b634e487b7160e01b600052603260045260246000fd5b91908110156120cf5760051b81013590601e198136030182121561114657019081359167ffffffffffffffff8311611146576020018236038113611146579190565b90918281527f07ffffffffffffffffffffffffffffffffffffffffffffffffffffffffffffff83116111465760209260051b809284830137010190565b519067ffffffffffffffff8216820361114657565b916001600160a01b03906000602060405161219381611f1b565b8281520152166000526008602052604060002091604051926121b484611f1b565b549067ffffffffffffffff808084169384875260401c166020860193818552159081612226575b50612219578080865116941693841061220f578083511691161161220b57604051632d75bc4f60e01b8152600490fd5b5290565b9250905016815290565b8092939116845216905290565b905015386121db565b91908110156120cf5760051b0190565b356001600160a01b0381168103611146579056fea2646970667358221220393873685d6ee3a372d752c6da42464d98aea3a7736fe299e90f17ffc442bd4e64736f6c63430008140033",
  "devdoc": {
    "kind": "dev",
    "methods": {
      "owner()": {
        "details": "Returns the address of the current owner."
      },
      "renounceOwnership()": {
        "details": "Leaves the contract without owner. It will not be possible to call `onlyOwner` functions anymore. Can only be called by the current owner. NOTE: Renouncing ownership will leave the contract without an owner, thereby removing any functionality that is only available to the owner."
      },
      "transferOwnership(address)": {
        "details": "Transfers ownership of the contract to a new account (`newOwner`). Can only be called by the current owner."
      }
    },
    "version": 1
  },
  "userdoc": {
    "kind": "user",
    "methods": {},
    "version": 1
  },
  "storageLayout": {
    "storage": [
      {
        "astId": 730,
        "contract": "contracts/FeeReimbursementApp.sol:FeeReimbursementApp",
        "label": "brevisProof",
        "offset": 0,
        "slot": "0",
        "type": "t_contract(IBrevisProof)1010"
      },
      {
        "astId": 7,
        "contract": "contracts/FeeReimbursementApp.sol:FeeReimbursementApp",
        "label": "_owner",
        "offset": 0,
        "slot": "1",
        "type": "t_address"
      },
      {
        "astId": 1539,
        "contract": "contracts/FeeReimbursementApp.sol:FeeReimbursementApp",
        "label": "rewardToken",
        "offset": 0,
        "slot": "2",
        "type": "t_address"
      },
      {
        "astId": 1541,
        "contract": "contracts/FeeReimbursementApp.sol:FeeReimbursementApp",
        "label": "rewardTokenDecimals",
        "offset": 20,
        "slot": "2",
        "type": "t_uint24"
      },
      {
        "astId": 1544,
        "contract": "contracts/FeeReimbursementApp.sol:FeeReimbursementApp",
        "label": "feeRebateTierModule",
        "offset": 0,
        "slot": "3",
        "type": "t_contract(IFeeRebateTierModule)1497"
      },
      {
        "astId": 1547,
        "contract": "contracts/FeeReimbursementApp.sol:FeeReimbursementApp",
        "label": "factory",
        "offset": 0,
        "slot": "4",
        "type": "t_contract(IFactory)1505"
      },
      {
        "astId": 1549,
        "contract": "contracts/FeeReimbursementApp.sol:FeeReimbursementApp",
        "label": "claimer",
        "offset": 0,
        "slot": "5",
        "type": "t_address"
      },
      {
        "astId": 1551,
        "contract": "contracts/FeeReimbursementApp.sol:FeeReimbursementApp",
        "label": "contractsHash",
        "offset": 0,
        "slot": "6",
        "type": "t_uint256"
      },
      {
        "astId": 1555,
        "contract": "contracts/FeeReimbursementApp.sol:FeeReimbursementApp",
        "label": "vkHashesToCircuitSize",
        "offset": 0,
        "slot": "7",
        "type": "t_mapping(t_bytes32,t_uint16)"
      },
      {
        "astId": 1560,
        "contract": "contracts/FeeReimbursementApp.sol:FeeReimbursementApp",
        "label": "accountClaimPeriod",
        "offset": 0,
        "slot": "8",
        "type": "t_mapping(t_address,t_struct(ClaimPeriod)1527_storage)"
      },
      {
        "astId": 1564,
        "contract": "contracts/FeeReimbursementApp.sol:FeeReimbursementApp",
        "label": "accountAccumulatedFee",
        "offset": 0,
        "slot": "9",
        "type": "t_mapping(t_address,t_uint248)"
      },
      {
        "astId": 1566,
        "contract": "contracts/FeeReimbursementApp.sol:FeeReimbursementApp",
        "label": "migrationDone",
        "offset": 0,
        "slot": "10",
        "type": "t_bool"
      },
      {
        "astId": 1569,
        "contract": "contracts/FeeReimbursementApp.sol:FeeReimbursementApp",
        "label": "migrationContract",
        "offset": 1,
        "slot": "10",
        "type": "t_contract(IMigration)1522"
      }
    ],
    "types": {
      "t_address": {
        "encoding": "inplace",
        "label": "address",
        "numberOfBytes": "20"
      },
      "t_bool": {
        "encoding": "inplace",
        "label": "bool",
        "numberOfBytes": "1"
      },
      "t_bytes32": {
        "encoding": "inplace",
        "label": "bytes32",
        "numberOfBytes": "32"
      },
      "t_contract(IBrevisProof)1010": {
        "encoding": "inplace",
        "label": "contract IBrevisProof",
        "numberOfBytes": "20"
      },
      "t_contract(IFactory)1505": {
        "encoding": "inplace",
        "label": "contract IFactory",
        "numberOfBytes": "20"
      },
      "t_contract(IFeeRebateTierModule)1497": {
        "encoding": "inplace",
        "label": "contract IFeeRebateTierModule",
        "numberOfBytes": "20"
      },
      "t_contract(IMigration)1522": {
        "encoding": "inplace",
        "label": "contract IMigration",
        "numberOfBytes": "20"
      },
      "t_mapping(t_address,t_struct(ClaimPeriod)1527_storage)": {
        "encoding": "mapping",
        "key": "t_address",
        "label": "mapping(address => struct ClaimPeriod)",
        "numberOfBytes": "32",
        "value": "t_struct(ClaimPeriod)1527_storage"
      },
      "t_mapping(t_address,t_uint248)": {
        "encoding": "mapping",
        "key": "t_address",
        "label": "mapping(address => uint248)",
        "numberOfBytes": "32",
        "value": "t_uint248"
      },
      "t_mapping(t_bytes32,t_uint16)": {
        "encoding": "mapping",
        "key": "t_bytes32",
        "label": "mapping(bytes32 => uint16)",
        "numberOfBytes": "32",
        "value": "t_uint16"
      },
      "t_struct(ClaimPeriod)1527_storage": {
        "encoding": "inplace",
        "label": "struct ClaimPeriod",
        "members": [
          {
            "astId": 1524,
            "contract": "contracts/FeeReimbursementApp.sol:FeeReimbursementApp",
            "label": "startBlockNumber",
            "offset": 0,
            "slot": "0",
            "type": "t_uint64"
          },
          {
            "astId": 1526,
            "contract": "contracts/FeeReimbursementApp.sol:FeeReimbursementApp",
            "label": "endBlockNumber",
            "offset": 8,
            "slot": "0",
            "type": "t_uint64"
          }
        ],
        "numberOfBytes": "32"
      },
      "t_uint16": {
        "encoding": "inplace",
        "label": "uint16",
        "numberOfBytes": "2"
      },
      "t_uint24": {
        "encoding": "inplace",
        "label": "uint24",
        "numberOfBytes": "3"
      },
      "t_uint248": {
        "encoding": "inplace",
        "label": "uint248",
        "numberOfBytes": "31"
      },
      "t_uint256": {
        "encoding": "inplace",
        "label": "uint256",
        "numberOfBytes": "32"
      },
      "t_uint64": {
        "encoding": "inplace",
        "label": "uint64",
        "numberOfBytes": "8"
      }
    }
  }
}