{
  "address": "0x2b1E704FC7885888E54619Ac58496848ecC7dbB7",
  "abi": [
    {
      "inputs": [
        {
          "internalType": "address",
          "name": "_brevisProof",
          "type": "address"
        },
        {
          "internalType": "address",
          "name": "_migrationContract",
          "type": "address"
        }
      ],
      "stateMutability": "nonpayable",
      "type": "constructor"
    },
    {
      "inputs": [],
      "name": "InvalidNewClaimPeriod",
      "type": "error"
    },
    {
      "inputs": [],
      "name": "ZeroAddress",
      "type": "error"
    },
    {
      "inputs": [],
      "name": "onlyClaimContractCanAccess",
      "type": "error"
    },
    {
      "anonymous": false,
      "inputs": [
        {
          "indexed": false,
          "internalType": "address",
          "name": "",
          "type": "address"
        }
      ],
      "name": "BrevisProofUpdated",
      "type": "event"
    },
    {
      "anonymous": false,
      "inputs": [
        {
          "indexed": false,
          "internalType": "address",
          "name": "",
          "type": "address"
        }
      ],
      "name": "ClaimerUpdated",
      "type": "event"
    },
    {
      "anonymous": false,
      "inputs": [
        {
          "indexed": false,
          "internalType": "uint256",
          "name": "",
          "type": "uint256"
        }
      ],
      "name": "ContractsHashUpdated",
      "type": "event"
    },
    {
      "anonymous": false,
      "inputs": [
        {
          "indexed": false,
          "internalType": "address",
          "name": "account",
          "type": "address"
        },
        {
          "indexed": false,
          "internalType": "uint248",
          "name": "feeRebate",
          "type": "uint248"
        },
        {
          "indexed": false,
          "internalType": "uint248",
          "name": "volume30D",
          "type": "uint248"
        },
        {
          "indexed": false,
          "internalType": "uint248",
          "name": "feeRebateWithRate",
          "type": "uint248"
        },
        {
          "indexed": false,
          "internalType": "uint64",
          "name": "startBlockNumber",
          "type": "uint64"
        },
        {
          "indexed": false,
          "internalType": "uint64",
          "name": "endBlockNumber",
          "type": "uint64"
        }
      ],
      "name": "FeeRebateAccumulated",
      "type": "event"
    },
    {
      "anonymous": false,
      "inputs": [
        {
          "indexed": false,
          "internalType": "address",
          "name": "",
          "type": "address"
        }
      ],
      "name": "FeeRebateTireModuleUpdated",
      "type": "event"
    },
    {
      "anonymous": false,
      "inputs": [
        {
          "indexed": false,
          "internalType": "address",
          "name": "account",
          "type": "address"
        },
        {
          "indexed": false,
          "internalType": "uint248",
          "name": "feeRebate",
          "type": "uint248"
        }
      ],
      "name": "FeeReimbursed",
      "type": "event"
    },
    {
      "anonymous": false,
      "inputs": [],
      "name": "MigrationDone",
      "type": "event"
    },
    {
      "anonymous": false,
      "inputs": [
        {
          "indexed": false,
          "internalType": "address",
          "name": "account",
          "type": "address"
        },
        {
          "indexed": false,
          "internalType": "uint248",
          "name": "feeAccumulated",
          "type": "uint248"
        },
        {
          "indexed": false,
          "internalType": "uint64",
          "name": "startBlockNumber",
          "type": "uint64"
        },
        {
          "indexed": false,
          "internalType": "uint64",
          "name": "endBlockNumber",
          "type": "uint64"
        }
      ],
      "name": "MigrationFinishedForAccount",
      "type": "event"
    },
    {
      "anonymous": false,
      "inputs": [
        {
          "indexed": true,
          "internalType": "address",
          "name": "previousOwner",
          "type": "address"
        },
        {
          "indexed": true,
          "internalType": "address",
          "name": "newOwner",
          "type": "address"
        }
      ],
      "name": "OwnershipTransferred",
      "type": "event"
    },
    {
      "anonymous": false,
      "inputs": [
        {
          "indexed": false,
          "internalType": "bytes32[]",
          "name": "vkHashes",
          "type": "bytes32[]"
        },
        {
          "indexed": false,
          "internalType": "uint16[]",
          "name": "sizes",
          "type": "uint16[]"
        }
      ],
      "name": "VkHashesUpdated",
      "type": "event"
    },
    {
      "inputs": [
        {
          "internalType": "address",
          "name": "",
          "type": "address"
        }
      ],
      "name": "accountAccumulatedFee",
      "outputs": [
        {
          "internalType": "uint248",
          "name": "",
          "type": "uint248"
        }
      ],
      "stateMutability": "view",
      "type": "function"
    },
    {
      "inputs": [
        {
          "internalType": "address",
          "name": "",
          "type": "address"
        }
      ],
      "name": "accountClaimPeriod",
      "outputs": [
        {
          "internalType": "uint64",
          "name": "startBlockNumber",
          "type": "uint64"
        },
        {
          "internalType": "uint64",
          "name": "endBlockNumber",
          "type": "uint64"
        }
      ],
      "stateMutability": "view",
      "type": "function"
    },
    {
      "inputs": [
        {
          "internalType": "uint64",
          "name": "_chainId",
          "type": "uint64"
        },
        {
          "components": [
            {
              "internalType": "bytes32",
              "name": "commitHash",
              "type": "bytes32"
            },
            {
              "internalType": "bytes32",
              "name": "vkHash",
              "type": "bytes32"
            },
            {
              "internalType": "bytes32",
              "name": "appCommitHash",
              "type": "bytes32"
            },
            {
              "internalType": "bytes32",
              "name": "appVkHash",
              "type": "bytes32"
            },
            {
              "internalType": "bytes32",
              "name": "smtRoot",
              "type": "bytes32"
            }
          ],
          "internalType": "struct Brevis.ProofData[]",
          "name": "_proofDataArray",
          "type": "tuple[]"
        },
        {
          "internalType": "bytes[]",
          "name": "_appCircuitOutputs",
          "type": "bytes[]"
        }
      ],
      "name": "brevisBatchCallback",
      "outputs": [],
      "stateMutability": "nonpayable",
      "type": "function"
    },
    {
      "inputs": [
        {
          "internalType": "bytes32",
          "name": "_requestId",
          "type": "bytes32"
        },
        {
          "internalType": "bytes",
          "name": "_appCircuitOutput",
          "type": "bytes"
        }
      ],
      "name": "brevisCallback",
      "outputs": [],
      "stateMutability": "nonpayable",
      "type": "function"
    },
    {
      "inputs": [],
      "name": "brevisProof",
      "outputs": [
        {
          "internalType": "contract IBrevisProof",
          "name": "",
          "type": "address"
        }
      ],
      "stateMutability": "view",
      "type": "function"
    },
    {
      "inputs": [
        {
          "internalType": "address",
          "name": "account",
          "type": "address"
        }
      ],
      "name": "claim",
      "outputs": [],
      "stateMutability": "nonpayable",
      "type": "function"
    },
    {
      "inputs": [],
      "name": "claimContract",
      "outputs": [
        {
          "internalType": "address",
          "name": "",
          "type": "address"
        }
      ],
      "stateMutability": "view",
      "type": "function"
    },
    {
      "inputs": [],
      "name": "claimer",
      "outputs": [
        {
          "internalType": "address",
          "name": "",
          "type": "address"
        }
      ],
      "stateMutability": "view",
      "type": "function"
    },
    {
      "inputs": [],
      "name": "contractsHash",
      "outputs": [
        {
          "internalType": "uint256",
          "name": "",
          "type": "uint256"
        }
      ],
      "stateMutability": "view",
      "type": "function"
    },
    {
      "inputs": [],
      "name": "feeRebateTierModule",
      "outputs": [
        {
          "internalType": "contract IFeeRebateTierModule",
          "name": "",
          "type": "address"
        }
      ],
      "stateMutability": "view",
      "type": "function"
    },
    {
      "inputs": [
        {
          "internalType": "address[]",
          "name": "_accounts",
          "type": "address[]"
        }
      ],
      "name": "migrate",
      "outputs": [],
      "stateMutability": "nonpayable",
      "type": "function"
    },
    {
      "inputs": [],
      "name": "migrationContract",
      "outputs": [
        {
          "internalType": "contract IMigration",
          "name": "",
          "type": "address"
        }
      ],
      "stateMutability": "view",
      "type": "function"
    },
    {
      "inputs": [],
      "name": "owner",
      "outputs": [
        {
          "internalType": "address",
          "name": "",
          "type": "address"
        }
      ],
      "stateMutability": "view",
      "type": "function"
    },
    {
      "inputs": [],
      "name": "renounceOwnership",
      "outputs": [],
      "stateMutability": "nonpayable",
      "type": "function"
    },
    {
      "inputs": [],
      "name": "rewardToken",
      "outputs": [
        {
          "internalType": "address",
          "name": "",
          "type": "address"
        }
      ],
      "stateMutability": "view",
      "type": "function"
    },
    {
      "inputs": [],
      "name": "rewardTokenDecimals",
      "outputs": [
        {
          "internalType": "uint24",
          "name": "",
          "type": "uint24"
        }
      ],
      "stateMutability": "view",
      "type": "function"
    },
    {
      "inputs": [
        {
          "internalType": "address",
          "name": "_brevisProof",
          "type": "address"
        }
      ],
      "name": "setBrevisProof",
      "outputs": [],
      "stateMutability": "nonpayable",
      "type": "function"
    },
    {
      "inputs": [
        {
          "internalType": "address",
          "name": "_claimContract",
          "type": "address"
        }
      ],
      "name": "setClaimContract",
      "outputs": [],
      "stateMutability": "nonpayable",
      "type": "function"
    },
    {
      "inputs": [
        {
          "internalType": "address",
          "name": "_claimer",
          "type": "address"
        }
      ],
      "name": "setClaimer",
      "outputs": [],
      "stateMutability": "nonpayable",
      "type": "function"
    },
    {
      "inputs": [
        {
          "internalType": "uint256",
          "name": "_contractsHash",
          "type": "uint256"
        }
      ],
      "name": "setContractsHash",
      "outputs": [],
      "stateMutability": "nonpayable",
      "type": "function"
    },
    {
      "inputs": [
        {
          "internalType": "contract IFeeRebateTierModule",
          "name": "_feeRebateTierModule",
          "type": "address"
        }
      ],
      "name": "setFeeRebateTierModule",
      "outputs": [],
      "stateMutability": "nonpayable",
      "type": "function"
    },
    {
      "inputs": [],
      "name": "setMigrationFinished",
      "outputs": [],
      "stateMutability": "nonpayable",
      "type": "function"
    },
    {
      "inputs": [
        {
          "internalType": "address",
          "name": "_rewardToken",
          "type": "address"
        },
        {
          "internalType": "uint24",
          "name": "_decimals",
          "type": "uint24"
        }
      ],
      "name": "setRewardToken",
      "outputs": [],
      "stateMutability": "nonpayable",
      "type": "function"
    },
    {
      "inputs": [
        {
          "internalType": "bytes32[]",
          "name": "_vkHashes",
          "type": "bytes32[]"
        },
        {
          "internalType": "uint16[]",
          "name": "_sizes",
          "type": "uint16[]"
        }
      ],
      "name": "setVkHashes",
      "outputs": [],
      "stateMutability": "nonpayable",
      "type": "function"
    },
    {
      "inputs": [
        {
          "internalType": "uint64",
          "name": "_chainId",
          "type": "uint64"
        },
        {
          "components": [
            {
              "internalType": "bytes32",
              "name": "commitHash",
              "type": "bytes32"
            },
            {
              "internalType": "bytes32",
              "name": "vkHash",
              "type": "bytes32"
            },
            {
              "internalType": "bytes32",
              "name": "appCommitHash",
              "type": "bytes32"
            },
            {
              "internalType": "bytes32",
              "name": "appVkHash",
              "type": "bytes32"
            },
            {
              "internalType": "bytes32",
              "name": "smtRoot",
              "type": "bytes32"
            }
          ],
          "internalType": "struct Brevis.ProofData",
          "name": "_proofData",
          "type": "tuple"
        },
        {
          "internalType": "bytes32",
          "name": "_merkleRoot",
          "type": "bytes32"
        },
        {
          "internalType": "bytes32[]",
          "name": "_merkleProof",
          "type": "bytes32[]"
        },
        {
          "internalType": "uint8",
          "name": "_nodeIndex",
          "type": "uint8"
        },
        {
          "internalType": "bytes",
          "name": "_appCircuitOutput",
          "type": "bytes"
        }
      ],
      "name": "singleRun",
      "outputs": [],
      "stateMutability": "nonpayable",
      "type": "function"
    },
    {
      "inputs": [
        {
          "internalType": "address",
          "name": "newOwner",
          "type": "address"
        }
      ],
      "name": "transferOwnership",
      "outputs": [],
      "stateMutability": "nonpayable",
      "type": "function"
    },
    {
      "inputs": [
        {
          "internalType": "bytes32",
          "name": "_requestId",
          "type": "bytes32"
        },
        {
          "internalType": "uint64",
          "name": "_chainId",
          "type": "uint64"
        },
        {
          "components": [
            {
              "internalType": "bytes32",
              "name": "smtRoot",
              "type": "bytes32"
            },
            {
              "components": [
                {
                  "internalType": "uint64",
                  "name": "blkNum",
                  "type": "uint64"
                },
                {
                  "internalType": "uint64",
                  "name": "receiptIndex",
                  "type": "uint64"
                },
                {
                  "components": [
                    {
                      "components": [
                        {
                          "internalType": "uint8",
                          "name": "valueFromTopic",
                          "type": "uint8"
                        },
                        {
                          "internalType": "uint64",
                          "name": "valueIndex",
                          "type": "uint64"
                        },
                        {
                          "internalType": "address",
                          "name": "contractAddress",
                          "type": "address"
                        },
                        {
                          "internalType": "bytes32",
                          "name": "logTopic0",
                          "type": "bytes32"
                        }
                      ],
                      "internalType": "struct Brevis.LogExtraInfo",
                      "name": "logExtraInfo",
                      "type": "tuple"
                    },
                    {
                      "internalType": "uint64",
                      "name": "logIndex",
                      "type": "uint64"
                    },
                    {
                      "internalType": "bytes32",
                      "name": "value",
                      "type": "bytes32"
                    }
                  ],
                  "internalType": "struct Brevis.LogInfo[5]",
                  "name": "logs",
                  "type": "tuple[5]"
                }
              ],
              "internalType": "struct Brevis.ReceiptInfo[]",
              "name": "receipts",
              "type": "tuple[]"
            },
            {
              "components": [
                {
                  "internalType": "bytes32",
                  "name": "blockHash",
                  "type": "bytes32"
                },
                {
                  "internalType": "address",
                  "name": "account",
                  "type": "address"
                },
                {
                  "internalType": "bytes32",
                  "name": "slot",
                  "type": "bytes32"
                },
                {
                  "internalType": "bytes32",
                  "name": "slotValue",
                  "type": "bytes32"
                },
                {
                  "internalType": "uint64",
                  "name": "blockNumber",
                  "type": "uint64"
                }
              ],
              "internalType": "struct Brevis.StorageInfo[]",
              "name": "stores",
              "type": "tuple[]"
            },
            {
              "components": [
                {
                  "internalType": "bytes32",
                  "name": "leafHash",
                  "type": "bytes32"
                },
                {
                  "internalType": "bytes32",
                  "name": "blockHash",
                  "type": "bytes32"
                },
                {
                  "internalType": "uint64",
                  "name": "blockNumber",
                  "type": "uint64"
                },
                {
                  "internalType": "uint64",
                  "name": "blockTime",
                  "type": "uint64"
                },
                {
                  "internalType": "bytes",
                  "name": "leafRlpPrefix",
                  "type": "bytes"
                }
              ],
              "internalType": "struct Brevis.TransactionInfo[]",
              "name": "txs",
              "type": "tuple[]"
            }
          ],
          "internalType": "struct Brevis.ExtractInfos",
          "name": "_extractInfos",
          "type": "tuple"
        }
      ],
      "name": "validateRequest",
      "outputs": [
        {
          "internalType": "bool",
          "name": "",
          "type": "bool"
        }
      ],
      "stateMutability": "view",
      "type": "function"
    },
    {
      "inputs": [
        {
          "internalType": "bytes32",
          "name": "",
          "type": "bytes32"
        }
      ],
      "name": "vkHashesToCircuitSize",
      "outputs": [
        {
          "internalType": "uint16",
          "name": "",
          "type": "uint16"
        }
      ],
      "stateMutability": "view",
      "type": "function"
    }
  ],
  "transactionHash": "0x3f70b86f6d0af198e3c6a6514db226b3d0a526bd91453c019ead1cf717812e2c",
  "args": [
    "0xB876cc05c3C3C8ECBA65dAc4CF69CaF871F2e0DD",
    "0x1345c8a6b99536531f1fa3cfe37d8a5b7fc859aa"
  ],
  "numDeployments": 12,
  "solcInputHash": "927b8815a4b1ad8b6f9122db32ffcef5",
  "bytecode": "0x608034620000cc57601f6200234438819003918201601f19168301916001600160401b03831184841017620000d1578084926040948552833981010312620000cc576200005a60206200005283620000e7565b9201620000e7565b600080546001600160a01b039384166001600160a01b0319918216178255600180543381841681179092556040519592949293908416907f8be0079c531659141344cd1fd0a4f28419497f9722a3daafe3b4186f6b6457e09080a31690600a541617600a556122479081620000fd8239f35b600080fd5b634e487b7160e01b600052604160045260246000fd5b51906001600160a01b0382168203620000cc5756fe60c080604052600436101561001357600080fd5b600090813560e01c9081630fee1a2014611d81575080631dd3f35414611c355780631e83409a14611ba15780632e558d69146118bd578063360fde491461186157806343c927a9146118435780634833b80e146117b65780634a30d3eb146117575780635419f27c1461170b5780635d1c29eb1461153457806366345da41461150d578063715018a6146114ad57806379d6b6a2146111435780637c08aa7414610a4c5780637f239c4d14610a255780638da5cb5b146109fe5780639bdcecd1146109d8578063a184a0c7146109aa578063ada323ff1461091d578063b18c0868146108dc578063b90c209a14610866578063c772c87f146107f6578063c7f5aaa0146107d0578063cdfb58321461075e578063d379be2314610737578063ed1fe83b1461025d578063f2fde38b1461017e5763f7c618c11461015557600080fd5b3461017b578060031936011261017b5760206001600160a01b0360025416604051908152f35b80fd5b503461017b57602036600319011261017b57610198611dd7565b600154906001600160a01b03808316916101b3338414611f76565b169182156101f2576001600160a01b03191682176001557f8be0079c531659141344cd1fd0a4f28419497f9722a3daafe3b4186f6b6457e0600080a380f35b60405162461bcd60e51b815260206004820152602660248201527f4f776e61626c653a206e6577206f776e657220697320746865207a65726f206160448201527f64647265737300000000000000000000000000000000000000000000000000006064820152608490fd5b503461017b57606036600319011261017b57610277611e01565b6024359067ffffffffffffffff821161073357366023830112156107335767ffffffffffffffff8260040135116107335736602460a0846004013502840101116107335760443567ffffffffffffffff811161072f576102db903690600401611da6565b9290916102ed8483600401351461200c565b6001600160a01b0385541690813b1561072b5785906040519063cf7ac5a960e01b825267ffffffffffffffff604483019116600483015260406024830152846004013590526064810192602485019384845b876004013581106106ea57505083918380809303915afa80156106df576106c7575b505b82600401358110610372578580f35b6103aa60406103868386600401358661207d565b013561039d6103968489896120a3565b3691611f2f565b6020815191012014611fc1565b6103b98184600401358461207d565b5060606103cb8285600401358561207d565b01356103d88287876120a3565b90918852600660205261ffff6040892054161561068f5780601411610687578060331161068757806052116106875780605a116106875760629080821161068b57608211610687578101356005540361064257601481013560081c90818061057d575b610458823560601c605a84013560c01c605285013560c01c612137565b823560601c8a52600760205260408a209067ffffffffffffffff8151166fffffffffffffffff00000000000000006020845493015160401b16916fffffffffffffffffffffffffffffffff19161717905560086020526001600160f81b0360408a2054166001600160f81b038083168201116105695792605a836001600160f81b0360c0946105649897828f6040907f865837efc36f96ff0de4b15e50b0ead4bf18a6928f7045e7e39161eebf7c5dc79a3560601c815260086020522091818416011660ff60f81b82541617905560405194833560601c86526020860152603383013560081c60408601521660608401526052810135841c60808401520135821c60a0820152a1612058565b610363565b634e487b7160e01b8a52601160045260248afd5b602460206001600160a01b03600354166040519283809263b72bf50960e01b8252603388013560081c60048301525afa8015610637578a906105f2575b67ffffffffffffffff91501690806001600160f81b03838202160482148115171561056957606491026001600160f81b03160461043b565b506020813d60201161062f575b8161060c60209383611ef5565b8101031261062b5761062667ffffffffffffffff91612122565b6105ba565b8980fd5b3d91506105ff565b6040513d8c823e3d90fd5b60405162461bcd60e51b815260206004820152601660248201527f696e76616c696420636f6e7472616374732068617368000000000000000000006044820152606490fd5b8780fd5b8880fd5b60405162461bcd60e51b815260206004820152601060248201526f1d9ad2185cda081b9bdd081d985b1a5960821b6044820152606490fd5b6106d090611e5b565b6106db578438610361565b8480fd5b6040513d84823e3d90fd5b81358352602080830135908401526040808301359084015260608083013590840152608080830135908401528a955060a0928301929091019060010161033f565b8580fd5b8380fd5b8280fd5b503461017b578060031936011261017b5760206001600160a01b0360045416604051908152f35b503461017b57602036600319011261017b577fad74290dd7363323a597a949fa2f97ae088f486218d8190369bb417a41a075e3602061079b611dd7565b6001600160a01b03906107b382600154163314611f76565b16806001600160a01b03196004541617600455604051908152a180f35b503461017b578060031936011261017b576001600160a01b036020915416604051908152f35b503461017b57602036600319011261017b577f1bf3143ab1544528303e489724067fb6c3ff3f7e3b0a6df041cae24242e447736020610833611dd7565b6001600160a01b039061084b82600154163314611f76565b16806001600160a01b0319855416178455604051908152a180f35b503461017b57602036600319011261017b576004356001600160a01b03808216809203610733577fae4a28486e59e557cbe94f201dc6e5c485bd89a590bc78f414add8c2f6b4bd8d916108c0602092600154163314611f76565b806001600160a01b03196003541617600355604051908152a180f35b503461017b57602036600319011261017b576001600160f81b0360406020926001600160a01b0361090b611dd7565b16815260088452205416604051908152f35b503461017b57604036600319011261017b57610937611dd7565b60243562ffffff81168103610733577fffffffffffffffffff00000000000000000000000000000000000000000000006001600160a01b0361097e81600154163314611f76565b76ffffff00000000000000000000000000000000000000006002549360a01b1693169116171760025580f35b503461017b57602036600319011261017b5761ffff6040602092600435815260068452205416604051908152f35b503461017b578060031936011261017b57602062ffffff60025460a01c16604051908152f35b503461017b578060031936011261017b5760206001600160a01b0360015416604051908152f35b503461017b578060031936011261017b5760206001600160a01b0360035416604051908152f35b503461017b5760031960603682011261113f576024359067ffffffffffffffff8216820361112a576044359067ffffffffffffffff821161072f5760809082360301126107335760405190610aa082611e85565b80600401358252602481013567ffffffffffffffff81116106db578101366023820112156106db57600481013590610ad782611f17565b91610ae56040519384611ef5565b808352602083019136602483600a1b830101116106875760248101925b602483600a1b830101841061101657505050506020830152604481013567ffffffffffffffff81116106db578101366023820112156106db57600481013590610b4a82611f17565b91610b586040519384611ef5565b808352602083019136602460a0840283010111610687579160248301925b602460a084028201018410610fb25750505050604083015260648101359067ffffffffffffffff82116106db573660238383010112156106db576004828201013590610bc182611f17565b92610bcf6040519485611ef5565b82845260208401913660248560051b84840101011161068757602482820101925b60248560051b84840101018410610ee457505050505060608201526001600160a01b0383541690813b1561072f5791839167ffffffffffffffff93604051948593631f022a9d60e21b855260043560048601521660248401526060604484015260e48301908051606485015260208101519160806084860152825180915260206101048601930190865b818110610e21575050506040810151916063198582030160a486015260208084519283815201930190865b818110610dc25750505060600151906063198482030160c4850152815180825260208201916020808360051b83010194019287915b838310610d1757505050505082809103915afa80156106df57610d03575b602060405160018152f35b610d0d8291611e5b565b61017b5780610cf8565b9295975092955092601f1982820301835260808651805183526020810151602084015267ffffffffffffffff604082015116604084015267ffffffffffffffff606082015116606084015201519060a060808201528151918260a08301528a5b838110610dac5750506020600192819260c0918d838284010152601f8019910116010197019301930187959389979592610cda565b80602080928401015160c0828601015201610d77565b929496509281955060a060209167ffffffffffffffff608060019551805184526001600160a01b038682015116868501526040810151604085015260608101516060850152015116608082015201950191019086949288969492610ca5565b92949650929094506040855167ffffffffffffffff815116835267ffffffffffffffff60208201511660208401520151604082019089915b60058310610e7e57505050602061040060019201950191019086949288969492610c7a565b602060c0600192604085516060815160ff815116855267ffffffffffffffff8782015116878601526001600160a01b038482015116848601520151606084015267ffffffffffffffff85820151166080840152015160a082015201920192019190610e59565b833567ffffffffffffffff811161062b5760a083850182013603602319011261062b5760405191610f1483611ebd565b83850182016024810135845260448101356020850152610f3690606401611e18565b6040840152610f4b6084838787010101611e18565b606084015260a4828686010101359067ffffffffffffffff8211610fae5736604383858989010101011215610fae576024936020938493610f9c9136918a8a01909101018088013590604401611f2f565b60808201528152019401939050610bf0565b8b80fd5b60a08436031261068b5760a0806020602494604051610fd081611ebd565b88358152610fdf838a01611ded565b83820152604089013560408201526060890135606082015261100360808a01611e18565b6080820152815201950194925050610b76565b610400808536031261062b576040519061102f82611ea1565b61103886611e18565b825261104660208701611e18565b602083015236605f8701121561113b576040519061106382611ebd565b819036818901116111375760408801915b818901831061109757505050604082015281526104009390930192602001610b02565b60c083360312611133576040516110ad81611ea1565b60808436031261112f57604051916110c483611e85565b84359160ff8316830361112a578360209360c095526110e4848801611e18565b848201526110f460408801611ded565b604082015260608701356060820152815261111160808701611e18565b8382015260a08601356040820152815201920191611074565b600080fd5b8e80fd5b8d80fd5b8c80fd5b8a80fd5b5080fd5b503461017b57604036600319011261017b57602467ffffffffffffffff813581811161072f57611177903690600401611e2d565b916001600160a01b039084604083885416815197888092632cc27dc960e11b825260043560048301525afa80156114a25787968891611469575b506111cf6111c0368888611f2f565b9788516020809a012014611fc1565b87526006865261ffff60408820541615611433578460141161142f57833560601c958560331161068757601485013560081c918660521161068b57603386013560081c9387605a1161062b57605287013560c01c968860621161113b57605a81013560c01c9860821161113b5760620135600554036113eb578395841590811561133c575b5050611261898989612137565b898b526007845260408b20918151166fffffffffffffffff000000000000000085845493015160401b16916fffffffffffffffffffffffffffffffff191617179055600882526001600160f81b03808060408c20541696168096019181831161132a57509160c097959391899795937f865837efc36f96ff0de4b15e50b0ead4bf18a6928f7045e7e39161eebf7c5dc79a8c526008835260408c20911660ff60f81b82541617905560405196875286015260408501526060840152608083015260a0820152a180f35b634e487b7160e01b8b5260116004528afd5b83919297508490600354166040519283809263b72bf50960e01b82528a60048301525afa80156113e05787918c916113a8575b5016906001600160f81b0382860216918583041417156113955760649004943880611254565b50634e487b7160e01b8952601160045288fd5b809250858092503d83116113d9575b6113c18183611ef5565b8101031261113b576113d38791612122565b3861136f565b503d6113b7565b6040513d8d823e3d90fd5b60405162461bcd60e51b8152600481018490526016818401527f696e76616c696420636f6e7472616374732068617368000000000000000000006044820152606490fd5b8680fd5b8560106064926040519262461bcd60e51b845260048401528201526f1d9ad2185cda081b9bdd081d985b1a5960821b6044820152fd5b9650506040863d60401161149a575b8161148560409383611ef5565b8101031261142f5760208651960151386111b1565b3d9150611478565b6040513d89823e3d90fd5b503461017b578060031936011261017b5760006001546001600160a01b03196001600160a01b038216916114e2338414611f76565b166001557f8be0079c531659141344cd1fd0a4f28419497f9722a3daafe3b4186f6b6457e08280a380f35b503461017b578060031936011261017b5760206001600160a01b0360095416604051908152f35b503461017b5761014036600319011261017b5761154f611e01565b60a036602319011261113f5767ffffffffffffffff60e43581811161072f5761157c903690600401611da6565b926101049283359260ff841680940361142f5786610124968735848111610733576115ab903690600401611e2d565b9790966001600160a01b03968785541692833b1561072b57879260405197889687958695632247cd8f60e01b875216600486015260249e8f803590870152604435604487015260643580608052606487015260843560a05260a051608487015260a43560a487015260c43560c487015260e486016101209052850190611630926120e5565b9183015203915afa80156114a2576116f8575b5061164f368585611f2f565b94611664865160208098012060805114611fc1565b60a05187526006865261ffff60408820541615611433578460141161142f57833560601c958560331161068757601485013560081c918660521161068b57603386013560081c9387605a1161062b57605287013560c01c968860621161113b57605a81013560c01c9860821161113b5760620135600554036113eb578395841590811561133c575050611261898989612137565b61170490969196611e5b565b9438611643565b503461017b57602036600319011261017b57604080916001600160a01b03611731611dd7565b1681526007602052205481519067ffffffffffffffff908181168352831c166020820152f35b503461017b57602036600319011261017b57611771611dd7565b6001600160a01b039061178982600154163314611f76565b1680156117a4576001600160a01b0319600954161760095580f35b60405163d92e233d60e01b8152600490fd5b503461017b578060031936011261017b576117dd6001600160a01b03600154163314611f76565b740100000000000000000000000000000000000000007fffffffffffffffffffffff00ffffffffffffffffffffffffffffffffffffffff60095416176009557f11ff4b502208a76eac8b357cc5da037a8d078a5f6b3e0907a3477bc977f7a6bc8180a180f35b503461017b578060031936011261017b576020600554604051908152f35b503461017b57602036600319011261017b577f7bfc81ef745ea2254ff60bbb4fb7e8855f897b7aa3907ea8eebc957c362d8f5e60206004356118af6001600160a01b03600154163314611f76565b80600555604051908152a180f35b503461017b5760208060031936011261113f5767ffffffffffffffff9060043582811161072f576118f2903690600401611da6565b92906001600160a01b039261190c84600154163314611f76565b60ff60095460a01c16611b5d57855b858110611926578680f35b600a85815416868461194161193c868c8a6121ed565b6121fd565b604051631631810d60e31b8152921660048301526024928290849082905afa928a8415611b5157858b898c958498611b05575b50859492938561199461193c604099976001600160f81b03968b966121ed565b16815260088b52209616958660ff60f81b8254161790555416926119bc61193c878d8b6121ed565b835194859384926315067c9f60e21b84521660048301525afa8015611afa5789918a91611ab4575b506040516119f181611ed9565b8780878301941692838352169283815289611a0d878d8b6121ed565b611a16906121fd565b168c52600787528860408d209251168254915160401b6fffffffffffffffff000000000000000016916fffffffffffffffffffffffffffffffff191617179055611a61848a886121ed565b611a6a906121fd565b928860405194168452858401526040830152606082015260807f6a27ddc093ce48b1e92d52b8fc6f88bb3ec7b56ece49c43fc8d550d5bc954ca391a1611aaf90612058565b61191b565b9150506040813d604011611af2575b81611ad060409383611ef5565b8101031261068b57611aec84611ae583612122565b9201612122565b386119e4565b3d9150611ac3565b6040513d8b823e3d90fd5b95505050505092508481813d8311611b4a575b611b228183611ef5565b8101031261062b575191896001600160f81b038416840361017b57889190858b896040611974565b503d611b18565b604051903d90823e3d90fd5b6064906040519062461bcd60e51b82526004820152601260248201527f6d6967726174696f6e2066696e697368656400000000000000000000000000006044820152fd5b503461017b57602036600319011261017b57611bbb611dd7565b6001600160a01b039081600954163303611c23577f17525e7c25776b686f3c5fb5714aac26a41bdccd536c711002922e7e5ffb4c2c916040911680845260086020526001600160f81b0382852080549060ff60f81b821690558351928352166020820152a180f35b6040516332bc53e960e21b8152600490fd5b503461017b57604036600319011261017b5767ffffffffffffffff60043581811161073357611c68903690600401611da6565b9160243590811161072f57611c81903690600401611da6565b9091600190611c9b6001600160a01b038354163314611f76565b611ca683861461200c565b855b858110611d325750611cc690604051956040875260408701916120e5565b916020838682950382880152828152019392865b828110611d0b57877fb3f7d79a2f90dac793ddd7d86f2d7d5d073e107289c685083e9d4329f1640f5c88880389a180f35b909192939485359061ffff821680920361068b579081528201948201939291908301611cda565b611d408185879695966121ed565b359061ffff821680920361068757611d7991611d5d8289866121ed565b3589526006602052604089209061ffff19825416179055612058565b929192611ca8565b90503461113f578160031936011261113f576020906001600160a01b03600a54168152f35b9181601f8401121561112a5782359167ffffffffffffffff831161112a576020808501948460051b01011161112a57565b600435906001600160a01b038216820361112a57565b35906001600160a01b038216820361112a57565b6004359067ffffffffffffffff8216820361112a57565b359067ffffffffffffffff8216820361112a57565b9181601f8401121561112a5782359167ffffffffffffffff831161112a576020838186019501011161112a57565b67ffffffffffffffff8111611e6f57604052565b634e487b7160e01b600052604160045260246000fd5b6080810190811067ffffffffffffffff821117611e6f57604052565b6060810190811067ffffffffffffffff821117611e6f57604052565b60a0810190811067ffffffffffffffff821117611e6f57604052565b6040810190811067ffffffffffffffff821117611e6f57604052565b90601f8019910116810190811067ffffffffffffffff821117611e6f57604052565b67ffffffffffffffff8111611e6f5760051b60200190565b92919267ffffffffffffffff8211611e6f5760405191611f59601f8201601f191660200184611ef5565b82948184528183011161112a578281602093846000960137010152565b15611f7d57565b606460405162461bcd60e51b815260206004820152602060248201527f4f776e61626c653a2063616c6c6572206973206e6f7420746865206f776e65726044820152fd5b15611fc857565b606460405162461bcd60e51b815260206004820152602060248201527f6661696c656420746f206f70656e206f757470757420636f6d6d69746d656e746044820152fd5b1561201357565b60405162461bcd60e51b815260206004820152601060248201527f6c656e677468206e6f74206d61746368000000000000000000000000000000006044820152606490fd5b60001981146120675760010190565b634e487b7160e01b600052601160045260246000fd5b919081101561208d5760a0020190565b634e487b7160e01b600052603260045260246000fd5b919081101561208d5760051b81013590601e198136030182121561112a57019081359167ffffffffffffffff831161112a57602001823603811361112a579190565b90918281527f07ffffffffffffffffffffffffffffffffffffffffffffffffffffffffffffff831161112a5760209260051b809284830137010190565b519067ffffffffffffffff8216820361112a57565b916001600160a01b03906000602060405161215181611ed9565b82815201521660005260076020526040600020916040519261217284611ed9565b549067ffffffffffffffff808084169384875260401c1660208601938185521590816121e4575b506121d757808086511694169384106121cd57808351169116116121c957604051632d75bc4f60e01b8152600490fd5b5290565b9250905016815290565b8092939116845216905290565b90501538612199565b919081101561208d5760051b0190565b356001600160a01b038116810361112a579056fea26469706673582212201fb67d01ec837f608ea40e0cc525ed0d810b92be881cb1dc849bf8ce8ad1002f64736f6c63430008140033",
  "devdoc": {
    "kind": "dev",
    "methods": {
      "owner()": {
        "details": "Returns the address of the current owner."
      },
      "renounceOwnership()": {
        "details": "Leaves the contract without owner. It will not be possible to call `onlyOwner` functions anymore. Can only be called by the current owner. NOTE: Renouncing ownership will leave the contract without an owner, thereby removing any functionality that is only available to the owner."
      },
      "transferOwnership(address)": {
        "details": "Transfers ownership of the contract to a new account (`newOwner`). Can only be called by the current owner."
      }
    },
    "version": 1
  },
  "userdoc": {
    "errors": {
      "ZeroAddress()": [
        {
          "notice": "cannot set this value to the zero address"
        }
      ],
      "onlyClaimContractCanAccess()": [
        {
          "notice": "Only Claim Contract can access this"
        }
      ]
    },
    "kind": "user",
    "methods": {},
    "version": 1
  },
  "storageLayout": {
    "storage": [
      {
        "astId": 730,
        "contract": "contracts/FeeReimbursementApp.sol:FeeReimbursementApp",
        "label": "brevisProof",
        "offset": 0,
        "slot": "0",
        "type": "t_contract(IBrevisProof)1010"
      },
      {
        "astId": 7,
        "contract": "contracts/FeeReimbursementApp.sol:FeeReimbursementApp",
        "label": "_owner",
        "offset": 0,
        "slot": "1",
        "type": "t_address"
      },
      {
        "astId": 1540,
        "contract": "contracts/FeeReimbursementApp.sol:FeeReimbursementApp",
        "label": "rewardToken",
        "offset": 0,
        "slot": "2",
        "type": "t_address"
      },
      {
        "astId": 1542,
        "contract": "contracts/FeeReimbursementApp.sol:FeeReimbursementApp",
        "label": "rewardTokenDecimals",
        "offset": 20,
        "slot": "2",
        "type": "t_uint24"
      },
      {
        "astId": 1545,
        "contract": "contracts/FeeReimbursementApp.sol:FeeReimbursementApp",
        "label": "feeRebateTierModule",
        "offset": 0,
        "slot": "3",
        "type": "t_contract(IFeeRebateTierModule)1497"
      },
      {
        "astId": 1547,
        "contract": "contracts/FeeReimbursementApp.sol:FeeReimbursementApp",
        "label": "claimer",
        "offset": 0,
        "slot": "4",
        "type": "t_address"
      },
      {
        "astId": 1549,
        "contract": "contracts/FeeReimbursementApp.sol:FeeReimbursementApp",
        "label": "contractsHash",
        "offset": 0,
        "slot": "5",
        "type": "t_uint256"
      },
      {
        "astId": 1553,
        "contract": "contracts/FeeReimbursementApp.sol:FeeReimbursementApp",
        "label": "vkHashesToCircuitSize",
        "offset": 0,
        "slot": "6",
        "type": "t_mapping(t_bytes32,t_uint16)"
      },
      {
        "astId": 1558,
        "contract": "contracts/FeeReimbursementApp.sol:FeeReimbursementApp",
        "label": "accountClaimPeriod",
        "offset": 0,
        "slot": "7",
        "type": "t_mapping(t_address,t_struct(ClaimPeriod)1519_storage)"
      },
      {
        "astId": 1562,
        "contract": "contracts/FeeReimbursementApp.sol:FeeReimbursementApp",
        "label": "accountAccumulatedFee",
        "offset": 0,
        "slot": "8",
        "type": "t_mapping(t_address,t_uint248)"
      },
      {
        "astId": 1564,
        "contract": "contracts/FeeReimbursementApp.sol:FeeReimbursementApp",
        "label": "claimContract",
        "offset": 0,
        "slot": "9",
        "type": "t_address"
      },
      {
        "astId": 1566,
        "contract": "contracts/FeeReimbursementApp.sol:FeeReimbursementApp",
        "label": "migrationDone",
        "offset": 20,
        "slot": "9",
        "type": "t_bool"
      },
      {
        "astId": 1569,
        "contract": "contracts/FeeReimbursementApp.sol:FeeReimbursementApp",
        "label": "migrationContract",
        "offset": 0,
        "slot": "10",
        "type": "t_contract(IMigration)1514"
      }
    ],
    "types": {
      "t_address": {
        "encoding": "inplace",
        "label": "address",
        "numberOfBytes": "20"
      },
      "t_bool": {
        "encoding": "inplace",
        "label": "bool",
        "numberOfBytes": "1"
      },
      "t_bytes32": {
        "encoding": "inplace",
        "label": "bytes32",
        "numberOfBytes": "32"
      },
      "t_contract(IBrevisProof)1010": {
        "encoding": "inplace",
        "label": "contract IBrevisProof",
        "numberOfBytes": "20"
      },
      "t_contract(IFeeRebateTierModule)1497": {
        "encoding": "inplace",
        "label": "contract IFeeRebateTierModule",
        "numberOfBytes": "20"
      },
      "t_contract(IMigration)1514": {
        "encoding": "inplace",
        "label": "contract IMigration",
        "numberOfBytes": "20"
      },
      "t_mapping(t_address,t_struct(ClaimPeriod)1519_storage)": {
        "encoding": "mapping",
        "key": "t_address",
        "label": "mapping(address => struct ClaimPeriod)",
        "numberOfBytes": "32",
        "value": "t_struct(ClaimPeriod)1519_storage"
      },
      "t_mapping(t_address,t_uint248)": {
        "encoding": "mapping",
        "key": "t_address",
        "label": "mapping(address => uint248)",
        "numberOfBytes": "32",
        "value": "t_uint248"
      },
      "t_mapping(t_bytes32,t_uint16)": {
        "encoding": "mapping",
        "key": "t_bytes32",
        "label": "mapping(bytes32 => uint16)",
        "numberOfBytes": "32",
        "value": "t_uint16"
      },
      "t_struct(ClaimPeriod)1519_storage": {
        "encoding": "inplace",
        "label": "struct ClaimPeriod",
        "members": [
          {
            "astId": 1516,
            "contract": "contracts/FeeReimbursementApp.sol:FeeReimbursementApp",
            "label": "startBlockNumber",
            "offset": 0,
            "slot": "0",
            "type": "t_uint64"
          },
          {
            "astId": 1518,
            "contract": "contracts/FeeReimbursementApp.sol:FeeReimbursementApp",
            "label": "endBlockNumber",
            "offset": 8,
            "slot": "0",
            "type": "t_uint64"
          }
        ],
        "numberOfBytes": "32"
      },
      "t_uint16": {
        "encoding": "inplace",
        "label": "uint16",
        "numberOfBytes": "2"
      },
      "t_uint24": {
        "encoding": "inplace",
        "label": "uint24",
        "numberOfBytes": "3"
      },
      "t_uint248": {
        "encoding": "inplace",
        "label": "uint248",
        "numberOfBytes": "31"
      },
      "t_uint256": {
        "encoding": "inplace",
        "label": "uint256",
        "numberOfBytes": "32"
      },
      "t_uint64": {
        "encoding": "inplace",
        "label": "uint64",
        "numberOfBytes": "8"
      }
    }
  }
}